:020000040800F2
:10000000C8040020350100083D0100083F01000838
:1000100041010008430100084501000800000000FC
:100020000000000000000000000000004701000880
:1000300049010008000000004B010008730F000890
:100040004F0100084F0100084F0100084F01000850
:100050004F010008710F00084F0100084F01000810
:100060004F0100084F0100084F0100084F01000830
:100070004F0100084F0100084F0100084F01000820
:100080004F0100084F0100084F0100080000000068
:100090000000000000000000000000004F01000808
:1000A0004F0100084F0100084F0100084F010008F0
:1000B0004F0100084F0100084F0100084F010008E0
:1000C0004F0100084F0100084F0100084F010008D0
:1000D0004F010008F5140008011500084F01000841
:1000E0004F0100084F0100084F0100080000000008
:1000F0000000000000000000000000000000000000
:1001000000000000000000000000000000000000EF
:1001100000000000000000004F0100084F0100082F
:10012000DFF80CD000F018F8004800472D15000843
:10013000C80400200648804706480047FEE7FEE75F
:10014000FEE7FEE7FEE7FEE7FEE7FEE7FEE7FEE787
:10015000E10F000821010008064C074D06E0E068A9
:1001600040F0010394E8070098471034AC42F6D3FE
:10017000FFF7DAFF601500088015000810B590F849
:1001800021100024022903D00421816301243DE0D1
:1001900001680A6822F00E020A6001680A6822F00B
:1001A00001020A601A4A0168914201D1012121E04D
:1001B000174A1432914201D110211BE0144A28320F
:1001C000914201D1891515E0114A3C32914201D189
:1001D00089140FE00E4A5032914202D14FF480311F
:1001E00008E00B4A6432914202D14FF4801101E0E1
:1001F0004FF08071064A083A5160012180F82110C1
:10020000002180F82010416B01B18847204610BDC5
:10021000080002402DE9F84FDFF890A100220AF112
:10022000040B144601274FF00F090BF1040E00BF19
:100230000B6807FA04F52B40AB4274D1DFF870C1AC
:100240004E68A6EB0C0866452BD00DDC032E34D08F
:1002500005DC36B3012E19D0022E2FD11BE0112E52
:1002600016D0122E2AD119E0B8F5881F19D006DC55
:10027000B8F5803F15D0B8F5801F1FD111E0B8F553
:10028000001F0ED0B8F5041F18D10AE0CA6815E0A7
:10029000CA68121D12E0CA6808320FE0CA680C3240
:1002A0000CE08A682AB1012A4FF0080203D04561A8
:1002B00004E0042202E0056100E00022FF2B01D8E7
:1002C000064601E000F104064FEA840501D9A5F1D4
:1002D0002005D6F800C009FA05F82CEA080C02FA45
:1002E00005F54CEA050CC6F800C04D68ED0057D581
:1002F000304DAE6946F00106AE61AD6924F00306EB
:1003000005F0010500952C4D06EB050CDCF80850B6
:10031000A6074FEA167809FA08F6B543274EB04209
:1003200002D1002610E03BE0254EB04201D101266B
:100330000AE0244EB04201D1022605E0224EB0422E
:1003400001D1032600E0042606FA08F62E43CCF875
:1003500008604D68DAF80060ED03554601D51E438C
:1003600000E09E432E604D68DBF80060AD035D4603
:1003700001D51E4300E09E432E604D68DEF800600C
:10038000ED02754601D51E4300E09E432E604D6888
:10039000AD020E4D2E6801D51E4300E09E432E6037
:1003A000641C102CFFF444AFBDE8F88F000401403A
:1003B0000000111000100240000001400008014040
:1003C000000C014000100140001401400C040140E9
:1003D00001480068704700000000002002480168E2
:1003E000491C0160704700000000002010B5032088
:1003F00000F092F8002000F005F800F017F8002057
:1004000010BD000010B5044607484FF47A7100682B
:10041000B0FBF1F000F003FB00222146501E00F07B
:100420005BF8002010BD000004000020224808B541
:10043000816941F001018161806900F00100009053
:10044000052000F069F8002211466FF00B0000F063
:1004500043F8002211466FF00A0000F03DF8002238
:1004600011466FF0090000F037F800221146501FC6
:1004700000F032F800221146101F00F02DF8002283
:100480001146901E00F028F800221146501E00F080
:1004900023F800221146052000F01EF8052000F088
:1004A0000FF80648416821F0E0614160416841F081
:1004B0000071416008BD00000010024000000140D2
:1004C00000F01F02012191404009800000F1E0206E
:1004D000C0F8001170470000F0B40E4B1B680C46CA
:1004E000C3F30223C3F10705042D00D90425191D08
:1004F000072901D2002300E0DB1E012606FA05F1E0
:10050000491E214099409E40761E16403143F0BC62
:1005100000F01EBD0CED00E0064900F0070208687F
:100520004FF6FF03184040EA0220034A10430860D8
:10053000704700000CED00E00000FA052DE9F041E5
:1005400005460078394C800705D56068A96820F019
:10055000F000084360602878C00744D0686801282C
:1005600004D02168022804D0890703E021688903A8
:1005700000E08901002902DB0120BDE8F08161680B
:1005800021F0030101436160FFF722FF074668681D
:1005900041F28836012808D0022812D01FE000BF9F
:1005A000FFF716FFC01BB04217D86068C0F3810088
:1005B0000128F5D117E000BFFFF70AFFC01BB042CA
:1005C0000BD86068C0F381000228F5D10BE000BFB2
:1005D000FFF7FEFEC01BB04201D90320CDE76068E3
:1005E00010F00C0FF4D12878400705D56068E96851
:1005F00020F4E060084360602878000706D5606852
:10060000296920F4605040EAC100606000F03AF8C7
:100610006168074AC1F30311515CC840054908608D
:100620000020FFF7EFFE0020A7E7000000100240C7
:1006300046150008040000200148006870470000CB
:10064000040000200448054900684968044AC1F3D1
:100650000221515CC8407047040000200010024095
:10066000561500080448054900684968044AC1F362
:10067000C221515CC84070470400002000100240B5
:100680005615000810B513A288B00FCA8DE80F00E8
:1006900014A304AC0FCB84E80F00164B5A6816481D
:1006A00002F00C0104290FD008290DD1C2F38344B4
:1006B000D2031DF8041009D5DA6A04AB02F00F0268
:1006C0009A5CB0FBF2F0484308B010BD0B484843B9
:1006D000FAE7000002030405060708090A0B0C0DDF
:1006E0000E0F10100102030405060708090A0B0C7F
:1006F0000D0E0F100010024000127A0000093D009C
:100700002DE9F84F04460078B94DC00748D0686815
:10071000C0F38100012807D06868C0F38100022877
:1007200009D16868C00306D52868800338D5606899
:1007300000286FD034E06068B0F5803F0BD010B176
:10074000B0F5A02F11D0286820F4803028602868E8
:1007500020F4802002E0286840F48030286060683F
:1007600088B1FFF735FE064609E0286840F480208E
:100770002860F0E7FFF72CFE801B642875D82868F6
:100780008003F7D50CE0FFF723FE064605E000BF27
:10079000FFF71EFE801B6428F0D828688003F7D47A
:1007A0002078944E80074FF001094FF000083BD5A8
:1007B000686810F00C0F07D06868C0F38100022849
:1007C00009D16868C00306D42868800714D5206959
:1007D00001281FD110E02069B0B1C6F80090FFF7E2
:1007E000F7FD074605E000BFFFF7F2FDC01B02283A
:1007F000C4D828688007F7D52868616920F0F80018
:1008000040EAC10028600FE0C6F80080FFF7E0FD75
:10081000074606E0E9E000BFFFF7DAFDC01B02284B
:1008200023D828688007F7D4207800072CD5724891
:10083000A169D9B1C0F80090FFF7CAFD074604E0EE
:10084000FFF7C6FDC01B02280FD8686A8007F7D5DE
:100850006A484FF4FA510068B0FBF1F0009000BF15
:100860000098411E0091FAD20EE080E0C0F80080AE
:10087000FFF7AEFD074604E0FFF7AAFDC01B022804
:1008800075D8686A8007F7D42078400760D5E86992
:100890000027C00008D4E86940F08050E861E869AA
:1008A000012700F08050009055480168C90513D415
:1008B0000168834641F480710160FFF789FD82463B
:1008C00006E000BFFFF784FDA0EB0A0064284ED8C5
:1008D000DBF80000C005F5D5E06801280AD008B1B2
:1008E000052813D0286A20F001002862286A20F029
:1008F000040002E0286A40F001002862E06841F24A
:10090000883B98B1FFF764FD82460BE0286A40F00F
:1009100004002862EEE700BFFFF75AFDA0EB0A01D2
:1009200059455AD8286A8007F6D50CE0FFF750FDE4
:10093000824605E0FFF74CFDA0EB0A0159454CD873
:10094000286A8007F6D41FB1E86920F08050E8617A
:10095000E06988B36968C1F38101022945D00228A2
:10096000C6F8608004D0FFF733FD044638E034E079
:10097000FFF72EFD074604E0FFF72AFDC01B022803
:100980002BD828688001F7D4206AB0F5803F05D1C4
:10099000E86AA16820F00F000843E862D4E9080182
:1009A0000843696821F4741108436860C6F86090D0
:1009B000FFF70EFD044606E015E000BFFFF708FD57
:1009C000001B022809D828688001F7D50BE000BF7A
:1009D000FFF7FEFC001B022802D90320BDE8F88FB8
:1009E00028688001F4D40020F8E70120F6E7000031
:1009F00000100240000042428004424204000020F5
:100A0000007000404FF0E0210428086903D020F076
:100A100004000861704740F00400FAE7704710B521
:100A2000401EB0F1807F01D3012010BD4FF0E024C3
:100A300060610F21601700F08BFA0020A061072091
:100A40002061002010BD10B5FFF7E8FF10BD30B5E4
:100A500090F83C20012A20D0012280F83C2002237B
:100A600080F83D3003685C6824F070045C600368C3
:100A70005C680D682C435C6003689C6824F080040B
:100A80009C6003689C6849680C439C6080F83D202A
:100A9000002180F83C10084630BD022030BD10B562
:100AA000040003D094F83D0010B107E0012010BD10
:100AB000002084F83C00204600F00CF8022084F866
:100AC0003D00211D206800F0B1FA012084F83D00AE
:100AD000002010BD08B500680649884208D10648C4
:100AE000816941F400618161806900F400600090D7
:100AF00008BD0000002C01400010024070B5044603
:100B000090F83C00012817D0012584F83C500220C1
:100B100084F83D002068826822F0770222F47F4248
:100B200082600868502837D00DDC202859D005DCB9
:100B300088B3102841D151E0022070BD302853D035
:100B400040283AD13FE060282ED070280BD0B0F575
:100B5000805F03D0B0F5005F2FD110E0206881687E
:100B600021F0070115E0CB68D1E90121206800F0F0
:100B7000A9FA2168886840F0770088601DE0CB689A
:100B8000D1E90121206800F09DFA2068816841F4D4
:100B90008041816011E01EE0CA684968206800F069
:100BA000A3FA5021206806E0CA684968206800F06E
:100BB000ACFA6021206800F08FFA84F83D500020E4
:100BC00084F83C0070BDCA684968206800F08CFA5F
:100BD00040212068EFE700212068ECE71021206821
:100BE000E9E720212068E6E730212068E3E7704745
:100BF00070B5026804461068D168536910F00F0F91
:100C000051D003F0010501F4907635435DD0C20761
:100C100005D0CA0503D5E26B42F00102E263420748
:100C200005D5DA0703D0E26B42F00202E2638207E5
:100C300005D5DA0703D0E26B42F00402E263020753
:100C400005D5DA0703D0E26B42F00802E263E26BFB
:100C5000002A34D0800604D5880602D5204600F04C
:100C60007CFA20684069E16BC0F3801001F0080154
:100C70000143204624D000F062FA20684169490609
:100C80001AD5416921F040014161606BA0B11B4957
:100C90004163606BFFF772FA002810D0606B416B04
:100CA000BDE87040084783060FD58B060DD520465A
:100CB000BDE8704000F051BA2046FFF798FF70BDC4
:100CC000FFF795FF0020E06370BD030606D50B0615
:100CD00004D52046BDE8704000F0DABB4006F3D5ED
:100CE0004806F1D5D168204621F04001D16020218D
:100CF00084F8391000F08FF870BD00002F11000843
:100D000070B5040004D094F83900002510B106E055
:100D1000012070BD84F83850204600F023F82420CC
:100D200084F839002068C16821F40051C160204670
:100D300000F05EFA2068016921F4904101612068A9
:100D4000416921F02A0141612068C16841F40051E4
:100D5000C160E563202084F8390084F83A0000205F
:100D600070BD000070B5274E03680024264902209C
:100D70000322264D86B0B3421ED18B6943F48043D3
:100D80008B618969039201F4804104910102CDE9EC
:100D9000001069462846FFF73DFA2815CDE9000402
:100DA000694628460294FFF735FA002211462520AD
:100DB000FFF792FB252020E0154EB3421FD1CB69EF
:100DC00043F40033CB61C969039201F4003104910B
:100DD0000421CDE9001069462846FFF71BFA0820D8
:100DE000CDE90004694628460294FFF713FA002271
:100DF00011462620FFF770FB2620FFF761FB06B0A7
:100E000070BD0000003801400010024000080140A1
:100E10000044004070477047094808B5816941F0B7
:100E200020018161816901F020010091816941F017
:100E300004018161806900F00400009008BD000099
:100E40000010024010B5174886B015490024C0E9CB
:100E500000148460C460046144618461FFF71FFE74
:100E600018B1402110A000F051FB4FF480500090C9
:100E700069460C48FFF742FE18B146210AA000F06F
:100E800045FB049404A907480594FFF7E0FD0028FA
:100E900003D04D2104A000F039FB06B010BD0000C6
:100EA000002C0140880000202E2E2F5372632F74D7
:100EB000696D2E63000000000D4810B50B490160FC
:100EC0004FF416514160002181600C22C160C0E9DD
:100ED00004128161C161FFF713FF002805D0BDE84E
:100EE0001040432103A000F011BB10BD00380140A9
:100EF000080000202E2E2F5372632F7573617274B9
:100F00002E6300000D4810B50B4901604FF4E1312C
:100F10004160002181600C22C160C0E9041281613E
:100F2000C161FFF7EDFE002805D0BDE81040562155
:100F300003A000F0EBBA10BD0044004048000020C0
:100F40002E2E2F5372632F75736172742E630000FF
:100F50000907090E002806DA00F00F0000F1E02072
:100F600080F8141D704700F1E02080F800147047ED
:100F7000704710B5FFF732FABDE81040FFF763BDC8
:100F800030B58FB00120009000040024CDE90104A9
:100F90000225CDE90750800009906846FFF7B0FBB5
:100FA00000B1FEE70F200A90CDE90B540D9400210B
:100FB0000AA80E94FFF7C2FA00B1FEE7FFF73CFB68
:100FC0004FF47A71B0FBF1F0FFF729FD0420FFF731
:100FD00019FD00221146501EFFF77EFA0FB030BDFA
:100FE0000E48016841F00101016041680C4A11405E
:100FF000416001680B4A11400160016821F48021C1
:101000000160416821F4FE0141604FF41F018160DD
:101010000021C1620449C00308607047001002400B
:101020000000FFF8FFFFF6FE08ED00E0F0B50268F3
:101030001E4B1F4C1F4D4FF0804E984205D07045FF
:1010400003D0A04201D0A84203D122F070064A6822
:101050003243194E194FDFF868C098420BD07045E3
:1010600009D0A04207D0A84205D0B04203D0B84270
:1010700001D0604503D122F44074CA68224322F0B3
:1010800080044A69224302608A68C2620A688262F6
:10109000984205D0B04203D0B84201D0604501D19A
:1010A0000969016301214161F0BD0000002C01408C
:1010B000000400400008004000400140004401409E
:1010C0000048014010B5846842EA032224F47F44BA
:1010D0000A432243826010BD826822F070020A43F4
:1010E00042F007018160704710B5036A046A24F07A
:1010F00001040462846924F0F00444EA021423F039
:101100000A020A438461026210BD10B5036A23F02B
:10111000100303628369046A23F4704343EA0232D2
:1011200024F0A00343EA01118261016210BD10B5F1
:10113000406A0021C185C184FFF759FD10BD0168D7
:10114000CA6822F49072CA6001684A6922F00102FA
:101150004A61202180F83A10704710B590F83A1093
:10116000222901D0022010BD8168B1F5805F11D025
:101170000169002901681FD0496801F07F03816A75
:101180004A1C82620B70C18D491E0904090CC1857D
:1011900018D02BE00269816A002A0268526805D0E3
:1011A000D2B20A80816A491C8162ECE7C2F308026C
:1011B0000A80816A891CF7E74A68816A4B1C83624E
:1011C0000A70E0E70168CA6822F02002CA6001687C
:1011D000CA6822F48072CA6001684A6922F001027A
:1011E0004A61202180F83A10FFF714FE002010BD5C
:1011F0002DE9F041044600680169E26821F440519C
:10120000114301612169A068E269084361691143E2
:1012100022680843D16849F20C6399430143D160C5
:1012200020684169A26921F4407111434161E1697B
:101230006425B1F5004F954821684FF032083DD044
:1012400081427AD1FFF70EFA00EBC00101EB0010EA
:1012500061688900B0FBF1F6FFF704FA00EBC0010A
:1012600001EB001061688900B0FBF1F0B0FBF5F014
:101270006FF01801484306EB800108EB0110B0FB4A
:10128000F5F000F0F006FFF7EDF900EBC00101EB1F
:10129000001061688900B0FBF1F0B0FBF5F006EBDF
:1012A0000016FFF7DFF900EBC00101EB00106168E9
:1012B0008900B0FBF1F7FFF7D5F9D0E081423DD1CD
:1012C000FFF7D0F900EBC00101EB001061684900A5
:1012D000B0FBF1F0B0FBF5F00601FFF7C3F900EB4E
:1012E000C00101EB001061684900B0FBF1F7FFF7A6
:1012F000B9F900EBC00101EB001061684900B0FBD7
:10130000F1F0B0FBF5F06FF01801484307EB8001F6
:1013100008EBC100B0FBF5F000F0F80006EB40066A
:10132000FFF7A0F900EBC00101EB00106168490074
:10133000B0FBF1F7FFF796F93CE055E0FFF782F9D3
:1013400000EBC00101EB001061684900B0FBF1F057
:10135000B0FBF5F00601FFF775F900EBC00101EBFA
:10136000001061684900B0FBF1F7FFF76BF900EB83
:10137000C00101EB001061684900B0FBF1F0B0FB67
:10138000F5F06FF01801484307EB800108EBC1004E
:10139000B0FBF5F000F0F80006EB4006FFF752F95D
:1013A00000EBC00101EB001061684900B0FBF1F7F0
:1013B000FFF748F900EBC00101EB0010616849003C
:1013C000B0FBF1F0B0FBF5F06FF01801484307EB0C
:1013D000800108EBC100B0FBF5F000F007002168C8
:1013E00030448860BDE8F081FFF72CF900EBC001C4
:1013F00001EB001061688900B0FBF1F6FFF722F9FC
:1014000000EBC00101EB001061688900B0FBF1F056
:10141000B0FBF5F06FF01801484306EB800108EBD4
:101420000110B0FBF5F000F0F006FFF70BF900EB50
:10143000C00101EB001061688900B0FBF1F0B0FB66
:10144000F5F006EB0016FFF7FDF800EBC00101EB2D
:10145000001061688900B0FBF1F7FFF7F3F800EBCB
:10146000C00101EB001061688900B0FBF1F0B0FB36
:10147000F5F06FF01801484307EB800108EB01100D
:10148000B0FBF5F000F00F00A9E7000000380140C4
:1014900090F83910212901D0022070478168B1F5F8
:1014A000805F016A0BD04A1C0262026809785160B1
:1014B000C18C491E0904090CC1840ED017E00988AB
:1014C0000268C1F30801516001690029016A02D074
:1014D000491C0162ECE7891CFBE70168CA6822F03D
:1014E0008002CA600068C16841F04001C16000200C
:1014F000704700000148FFF77BBB00000800002098
:101500000148FFF775BB000048000020FEE702E03D
:1015100008C8121F08C1002AFAD17047704700207E
:1015200001E001C1121F002AFBD17047FEF75EFFE8
:10153000FFF726FDFFF770FCFFF784FCFFF7BCFC0C
:10154000FFF7E0FCFEE700000000000000000102E1
:10155000030406070809000000000102030400005C
:101560008015000800000020080000000E1500088B
:101570008815000808000020C00400001E1500089F
:081580000000000000366E01BE
:0400000508000121CD
:00000001FF
