:020000040800F2
:10000000300E0020350100083D0100083F010008C6
:1000100041010008430100084501000800000000FC
:100020000000000000000000000000004701000880
:1000300049010008000000004B010008DB24000813
:100040004F0100084F0100084F0100084F01000850
:100050004F0100084F0100084F0100084F01000840
:100060004F0100084F0100084F0100084F01000830
:100070004F0100084F010008B5030008C503000840
:100080004F0100084F0100084F0100080000000068
:100090000000000000000000000000004F01000808
:1000A0004F0100084F0100084F0100084F010008F0
:1000B0004F0100084F0100084F0100084F010008E0
:1000C0004F0100084F0100084F0100084F010008D0
:1000D0004F010008992C0008A92C00084F010008C6
:1000E0004F0100084F0100084F0100080000000008
:1000F0000000000000000000000000000000000000
:1001000000000000000000000000000000000000EF
:1001100000000000000000004F0100084F0100082F
:10012000DFF80CD000F026F90048004749370008F6
:10013000300E00200648804706480047FEE7FEE7ED
:10014000FEE7FEE7FEE7FEE7FEE7FEE7FEE7FEE787
:10015000712500082101000840EA01039B0703D034
:1001600009E008C9121F08C0042AFAD203E011F8F6
:10017000013B00F8013B521EF9D27047D2B201E0B8
:1001800000F8012B491EFBD270470022F6E710B59C
:1001900013460A4604461946FFF7F0FF204610BDF5
:1001A00030B505462A460B4612F8010B13F8014BF1
:1001B00008B1A042F8D01CB1002802D06D1CF1E7B4
:1001C000284630BDCAB2401E10F8011F8A4202D034
:1001D0000029F9D100207047421C10F8011B0029AA
:1001E000FBD1801A7047000070B50F4D00B9286828
:1001F000002412E00A4602E09E4203D0521C13780B
:10020000002BF9D1DAB2224305D02BB124B1002161
:1002100000F8011B04E00446401C0678002EE9D1DA
:100220002860204670BD0000C00000202DE9F05F6E
:1002300093460F4680460446002602F063FDD0F840
:100240000090824614F8015B2DB100F03FF8006881
:10025000405DC007F6D12B2D02D02D2D1AD0641E83
:100260000021CAF800105A463946204600F032F8FC
:10027000014627B13868A04201D1C7F80080DAF8FA
:100280000000022809D0CAF80090700505D5484240
:10029000BDE8F09F46F48066E2E70846F8E730B52F
:1002A0000B46014600202022012409E021FA02F534
:1002B0009D4205D303FA02F5491B04FA02F52844CE
:1002C000151EA2F10102F1DC30BD000000487047AC
:1002D000C83D00082DE9F05F8246007800271546EA
:1002E0008B460AF10104B946302801D09DB113E0D4
:1002F00014F8010B0127782803D0582801D045B104
:100300000AE00DB1102D07D10027102514F8010BBC
:1003100002E0082500E00A250026B0460EE005FBB5
:10032000080005FB06F1012701EB10461FFA80F8D3
:10033000B6F5803F00D3B94614F8010B294600F00A
:100340002BF80028EBDABBF1000F05D00FB1641ECB
:1003500000E05446CBF80040B9F1000F06D002F09F
:10036000D1FC02210160C81EBDE8F09F48EA0640AA
:10037000FAE70000064C074D06E0E06840F0010394
:1003800094E8070098471034AC42F6D3FFF7CCFE50
:10039000A43E0008C43E00083A2800D2303820F0BD
:1003A0002002412A01D3A2F13700884201D34FF045
:1003B000FF30704710B5024800F0F6F910BD00009C
:1003C0009002002010B5024800F0EEF910BD0000C8
:1003D0004C02002030B590F840500124AC40C56B71
:1003E0006C60046863604468102C04D10468A260E7
:1003F0000468E16003E00468A1600468E26030BD65
:1004000000B58948007801286FD187484068401CB2
:1004100085494860084640688449085C172801D12E
:10042000002000BD804840688049085C801E10287C
:100430006CD2DFE800F00810345B636B6B6B6B6BA6
:10044000241C4A3C6B2C022379A27A4801687A4822
:1004500001F0E6FC5AE0022375A27848016876486C
:1004600001F0DEFC42F21070734988824EE00323F3
:10047000002273480168704801F0D2FC46E0022374
:100480006BA2704801686C4801F0CAFC3EE0022390
:1004900067A26D480168684801F0C2FC36E002239B
:1004A00063A26A480168644801F0BAFC2EE00223A6
:1004B0005FA267480168604801F0B2FC40F6B830BE
:1004C0005D4988820120C87420E001230022604831
:1004D0000168594801F0A4FC40F6B83056498882BA
:1004E0000120C8745BA0C86010E010E0022350A295
:1004F0005A480168504801F093FC07E0022358A2D3
:10050000584801684C4801F08BFC00BF8AE046481F
:100510000078072830D144484068401C4249486070
:10052000084640684149085C172801D1002078E757
:100530003D4840683D49085C082804D009280AD095
:100540000A2818D10FE003230022474801683A48DF
:1005500001F066FC0FE0032300224448016836489E
:1005600001F05EFC07E001230022414801683248A7
:1005700001F056FC00BF55E02B4800780B2825D130
:1005800029484068401C2849486008464068394965
:10059000085C172801D1002043E72348406835490B
:1005A000085C132809D014280FD1022332A2334843
:1005B0000168214801F034FC07E0022330A23548ED
:1005C00001681D4801F02CFC00BF2BE016480078A4
:1005D0000E2806D114484068401C1349486000208A
:1005E0001FE7114800780C2806D10F484068401CCE
:1005F0000D494860002014E70B4800780D2806D10B
:1006000009484068401C08494860002009E706483E
:1006100000780F2806D104484068401C0249486011
:100620000020FEE60120FCE66C000020003D0008F2
:1006300031000000140000200007002054000020BA
:10064000300000202C00002048000020580000202E
:100650003C00002043474154543A31005C000020E4
:1006600032000000600000201C000020200000205C
:1006700024000020113D000830000000640000202C
:10068000444752414D2C31372C31303030302C31F1
:10069000000000006800002070B50446002594F8B2
:1006A0002100022803D00420A063012548E020682F
:1006B000006820F00E00216808602068006820F0C3
:1006C0000100216808601F492068884201D101208B
:1006D00026E01C4914312068884201D110201FE017
:1006E000184928312068884201D1801518E0154941
:1006F0003C312068884201D1801411E01149503109
:100700002068884202D14FF4803009E00D496431FD
:100710002068884202D14FF4801001E04FF08070D1
:10072000084908394860012084F8210000BF0020F2
:1007300084F8200000BF606B10B12046616B8847D1
:10074000284670BD08000240014609B901207047E3
:100750000868006820F001000A68106000200A683C
:1007600010600A6850600A6890600A68D0600D4A9C
:100770000868801A1422B0FBF2F08000086409486F
:100780000838C86391F8402001209040CA6B50603F
:100790000020886381F8210000BF81F8200000BF9D
:1007A00000BFD4E70800024070B50446E06B05685E
:1007B0002068066894F840100420884028400028EB
:1007C00046D006F00400002842D02068006800F0FF
:1007D000200028B92068006820F004002168086023
:1007E00057492068884201D1042027E05449143138
:1007F0002068884201D1402020E0514928312068FA
:10080000884201D1001519E04D493C3120688842E9
:1008100002D14FF4804011E04949503120688842AC
:1008200002D14FF4802009E04549643120688842B4
:1008300002D14FF4800001E04FF080604049083958
:100840004860E06A00287AD02046E16A884776E06E
:1008500094F84010022088402840A0B306F002001F
:1008600088B32068006800F0200040B92068006864
:1008700020F00A0021680860012084F82100304936
:100880002068884201D1022028E02D4914312068D7
:10089000884201D1202021E029492831206888425E
:1008A00001D140151AE026493C312068884202D126
:1008B0004FF4005012E0224950312068884203D1A1
:1008C0004FF400300AE017E01D4964312068884287
:1008D00002D14FF4001001E04FF0007018490839C0
:1008E000486000BF002084F8200000BFA06A30B339
:1008F0002046A16A884722E094F8401008208840EA
:100900002840E0B106F00800C8B12068006820F077
:100910000E002168086094F8401001208840E16BC7
:1009200048600120A06384F8210000BF002084F803
:10093000200000BF206B10B12046216B884770BD9E
:10094000080002400146002209B901207047184BF7
:100950000868C01A1423B0FBF3F080000864144840
:100960000838C863022081F821000868026843F64D
:10097000F0708243D1E901031843CB6818430B6937
:1009800018434B6918438B691843CB6918430243DA
:100990000868026000208862C86208634863886350
:1009A000012081F82100002081F8200000BFCDE760
:1009B000080002402DE9F04104460D4616461F4648
:1009C0004FF0000800BF94F82000012802D1022057
:1009D000BDE8F081012084F8200000BF94F82100D8
:1009E00001282CD1022084F821000020A063206877
:1009F000006820F00100216808603B463246294625
:100A00002046FFF7E7FCE06A30B12068006840F05C
:100A10000E00216808600BE02068006820F00400E8
:100A2000216808602068006840F00A0021680860BA
:100A30002068006840F001002168086006E000BFFF
:100A4000002084F8200000BF4FF002084046BFE7B6
:100A500070B504460D4600BF0648046006490748C5
:100A600002F0E4FF064680223146054801F04AF8CC
:100A700070BD00000C00002000380140D13C00088F
:100A8000CC0100202DE9F04102460B460020002158
:100A9000002400267FE00127874007EA03010029A0
:100AA00078D0FF2901D8174600E0171D3D46FF29E1
:100AB00001D8870002E0A0F10807BF003E462F687A
:100AC0004FF00F0C0CFA06FC27EA0C074FF0040C51
:100AD0000CFA06FC47EA0C072F60D7688F43D760F3
:100AE000304F4FEA900C57F82C4087074FEA177C9D
:100AF0000F2707FA0CF73C402B4FBA4201D10027D1
:100B00000FE02A4FBA4201D101270AE0284FBA422A
:100B100001D1022705E0274FBA4201D1032700E0A7
:100B200004274FEA807C4FEA1C7C07FA0CF7A742A7
:100B300030D187074FEA177C0F2707FA0CF4194FBB
:100B40004FEA900C57F82C70A743DFF858C04FEAD3
:100B500090084CF82870184F3F688F43DFF858C052
:100B6000CCF800700CF104073F688F430CF1040CC3
:100B7000CCF800700CF104073F688F430CF1040CB3
:100B8000CCF800700CF104073F688F430CF1040CA3
:100B9000CCF80070401C23FA00F7002F7FF47BAFE5
:100BA000BDE8F0810800014000080140000C014050
:100BB0000010014000140140000401402DE9F847F5
:100BC00003460024002000258446002700226EE111
:100BD0004FF0010808FA02F4D1F8008008EA040096
:100BE000A0427DD1DFF8D0A2D1F80480A8EB0A0999
:100BF000D0453AD014DCB8F1030F50D009DCB8F17D
:100C0000000F31D0B8F1010F1CD0B8F1020F49D15B
:100C100020E0B8F1110F18D0B8F1120F42D11EE048
:100C2000B9F5881F25D006DCB9F5803F20D0B9F58D
:100C3000801F37D11AE0B9F5001F18D0B9F5041F8D
:100C400030D117E0D1F80CC02DE0D1F80C8008F1BC
:100C5000040C28E0D1F80C8008F1080C23E0D1F84E
:100C60000C8008F10C0C1EE000BF00BF00BF00BFED
:100C700000BF00BFD1F80880B8F1000F02D14FF0DB
:100C8000040C0BE0D1F80880B8F1010F03D14FF04C
:100C9000080C1C6102E04FF0080C5C6103E04FF0AF
:100CA000000C00E000BF00BFFF2801D8984601E01B
:100CB00003F104084646FF2802D84FEA820803E001
:100CC000A2F108084FEA88084746D6F800804FF09E
:100CD0000F0909FA07F928EA09080CFA07F900E0F0
:100CE00088E048EA0908C6F80080D1F8048008F0D6
:100CF0008058B8F1805F7DD100BFDFF8C081D8F89F
:100D0000188048F00108DFF8B491C9F81880C84687
:100D1000D8F8188008F00108CDF8008000BF00BFA7
:100D20004FEAB9384FEA920958F829504FEA8278C9
:100D30004FEA18794FF00F0808FA09F825EA080574
:100D4000DFF87C81434502D14FF0000816E0DFF860
:100D50007481434502D14FF001080FE0DFF868814C
:100D6000434502D14FF0020808E0DFF860814345B7
:100D700002D14FF0030801E04FF004084FEA8279F6
:100D80004FEA197908FA09F848EA0505DFF84081C1
:100D90004FEA920948F82950D1F8048008F48038C5
:100DA000B8F5803F0AD1DFF82C81D8F8008048EAF6
:100DB0000008DFF82091C9F8008009E0DFF814810D
:100DC000D8F8008028EA0008DFF80891C9F8008008
:100DD000D1F8048008F40038B8F5003F10D1DFF8EE
:100DE000F48008F10408D8F8008048EA0008DFF829
:100DF000E49000E05AE009F10409C9F800800DE030
:100E0000DFF8D08008F10408D8F8008028EA00084C
:100E1000DFF8C09009F10409C9F80080D1F8048016
:100E200008F48018B8F5801F0ED1DFF8A88008F10B
:100E30000808D8F8008048EA0008DFF8989009F11F
:100E40000809C9F800800DE0DFF8888008F108087B
:100E5000D8F8008028EA0008DFF8789009F108093E
:100E6000C9F80080D1F8048008F40018B8F5001F14
:100E70000ED1DFF8608008F10C08D8F8008048EA4D
:100E80000008DFF8509009F10C09C9F800800DE066
:100E9000DFF8408008F10C08D8F8008028EA000844
:100EA000DFF8309009F10C09C9F80080521C102AB3
:100EB000FFF48EAEBDE8F88700001110001002406C
:100EC00000080140000C01400010014000140140E6
:100ED000080001400004014001480068704700001C
:100EE0000000002002480068401C0149086070476B
:100EF0000000002010B5032000F0C0F8002000F032
:100F000005F800F017F8002010BD000070B5044689
:100F1000074800684FF47A71B0FBF1F5284600F0FD
:100F20001CFC00222146501E00F069F8002070BD14
:100F30000400002008B500BF2148806940F001008E
:100F40001F4988610846806900F00100009000BFD9
:100F500000BF052000F092F8002211466FF00B0050
:100F600000F04DF8002211466FF00A0000F047F83B
:100F7000002211466FF0090000F041F800221146EE
:100F8000501F00F03CF800221146101F00F037F807
:100F900000221146901E00F032F800221146501E29
:100FA00000F02DF800BF0748406820F0E0600549D8
:100FB00048600846406840F00070486000BF08BDC7
:100FC000001002400000014000BF00F01F0201219C
:100FD0009140034A430942F8231000BF70470000C4
:100FE00080E100E000BF00F01F02012191404209B2
:100FF000920002F1E022C2F8001100BF70472DE913
:10100000F05F80460D461646002701F015FA0746A8
:1010100039462A46334601F00700C0F1070ABAF103
:10102000040F02D94FF0040A01E0C0F1070AD146CB
:1010300000F1040ABAF1070F02D24FF0000A01E0F2
:10104000A0F1030AD4464FF0010A0AFA09FAAAF1FC
:10105000010A0AEA020A0AFA0CFA4FF0010B0BFA2B
:101060000CFBABF1010B0BEA030B4AEA0B04214624
:10107000404601F0E9F9BDE8F09F000000BF00F034
:101080000702064B19684FF6FF031940044B0B4348
:1010900043EA0221014B196000BF70470CED00E0EC
:1010A0000000FA0570B504460E460025207800F0D1
:1010B0000200022807D14B48406820F0F000A168E8
:1010C000084348494860207800F0010000285DD0BE
:1010D0006068012806D14348006800F4003090B9E8
:1010E000012070BD6068022806D13E48006800F00B
:1010F000007040B90120F4E73A48006800F00200AF
:1011000008B90120EDE73748406820F00300616826
:10111000084334494860FFF7DFFE05466068012850
:1011200010D108E0FFF7D8FE401B41F28831884219
:1011300001D90320D5E72B48406800F00C000428B3
:10114000F0D123E06068022810D108E0FFF7C4FE68
:10115000401B41F28831884201D90320C1E7214870
:10116000406800F00C000828F0D10FE008E0FFF71D
:10117000B3FE401B41F28831884201D90320B0E719
:101180001848406800F00C000028F0D1207800F0EA
:101190000400042807D11348406820F4E060E168A7
:1011A000084310494860207800F00800082808D15A
:1011B0000C48406820F46050216940EAC1000949A8
:1011C000486000F03BF807494968C1F30311064A3B
:1011D000515CC840054908600020FFF797FE0020D9
:1011E0007FE7000000100240E83C000804000020F7
:1011F00001480068704700000400002000B5FFF7B8
:10120000F7FF04494968C1F30221034A515CC84011
:1012100000BD000000100240F83C000800B5FFF7D8
:10122000E7FF04494968C1F3C221034A515CC84041
:1012300000BD000000100240F83C0008F0B588B086
:1012400020A696E8A010F668CDE9057C07960495DF
:101250000FF2800CDCE90075DCE9026CCDE9026C70
:10126000CDE90075002100240022002300201D4D3F
:10127000696801F00C05FDB1042D02D0082D1AD1CA
:1012800001E019481AE004ADC1F38346AB5D01F4F7
:1012900080355DB1134DED6A05F00F051DF8054071
:1012A000114DB5FBF4F505FB03F202E00F4D03FB16
:1012B00005F2104602E000BF0B4800BF00BF08B0B7
:1012C000F0BD000002030405060708090A0B0C0D17
:1012D0000E0F10100102030405060708090A0B0C83
:1012E0000D0E0F100010024000127A0000093D00A0
:1012F000F8B504460025207800F00100002878D0D9
:10130000F848406800F00C0004280CD0F54840680C
:1013100000F00C00082811D1F248406800F4803039
:10132000B0F5803F0AD1EF48006800F40030002893
:101330005FD0606800285CD10120F8BD00BF606804
:10134000B0F5803F06D1E748006840F48030E549B9
:10135000086028E0606858B9E248006820F48030EE
:10136000E04908600846006820F4802008601AE020
:101370006068B0F5A02F0BD1DA48006840F48020F7
:10138000D84908600846006840F4803008600AE0E8
:10139000D448006820F48030D249086008460068CC
:1013A00020F48020086000BF606888B1FFF794FDDA
:1013B000054606E0FFF790FD401B642801D9032095
:1013C000BBE7C848006800F400300028F2D010E005
:1013D000FFF782FD054606E0FFF77EFD401B64280F
:1013E00001D90320A9E7BF48006800F400300028B5
:1013F000F2D1207800F00200022857D1B9484068A5
:1014000000F00C0050B1B748406800F00C0008280C
:1014100018D1B448406800F4803098B9B1480068E9
:1014200000F0020020B12069012801D0012084E7EA
:10143000AC48006820F0F800616940EAC100A949A1
:10144000086033E02069E8B10120A7490860FFF790
:1014500043FD054606E0FFF73FFD401B022801D98A
:1014600003206AE79F48006800F002000028F2D0DD
:101470009C48006820F0F800616940EAC100994981
:10148000086013E0002098490860FFF725FD054635
:1014900006E0FFF721FD401B022801D903204CE79D
:1014A0009048006800F002000028F2D1207800F097
:1014B000080008282DD1A069B8B101208B49086027
:1014C000FFF70AFD054606E0FFF706FD401B022870
:1014D00001D9032031E78348406A00F00200002868
:1014E000F2D0012000F0C4FF13E000207F49086023
:1014F000FFF7F2FC054606E0FFF7EEFC401B022872
:1015000001D9032019E77748406A00F0020000285B
:10151000F2D1207800F00400042873D1002671482D
:10152000C06900F0805070B900BF6E48C06940F0DB
:1015300080506C49C8610846C06900F08050009036
:1015400000BF00BF01266A48006800F48070B0B98F
:101550006748006840F4807065490860FFF7BCFC8C
:10156000054606E0FFF7B8FC401B642801D90320BC
:10157000E3E65F48006800F480700028F2D000BF06
:10158000E068012806D15748006A40F0010055493B
:10159000086227E0E06858B95248006A20F001006C
:1015A000504908620846006A20F00400086219E009
:1015B000E06805280BD14B48006A40F00400494917
:1015C00008620846006A40F0010008620AE04548E7
:1015D000006A20F00100434908620846006A20F0D2
:1015E0000400086200BFE068A0B1FFF775FC054683
:1015F00009E0FFF771FC401B41F28831884202D9B3
:1016000003209AE622E03748006A00F00200002832
:10161000EFD012E0FFF760FC054608E0FFF75CFC46
:10162000401B41F28831884201D9032085E62D48CC
:10163000006A00F002000028F0D1012E05D12948EF
:10164000C06920F080502749C86100BFE069C8B375
:101650002448406800F00C00082860D0E0690228A7
:1016600048D1002020490866FFF736FC054606E011
:10167000FFF732FC401B022801D903205DE6194820
:10168000006800F000700028F2D1206AB0F5803FB9
:1016900007D11448C06A20F00F00A168084311491F
:1016A000C862D4E9080108430E49496821F474115D
:1016B00008430C49486001200B490866FFF70CFC01
:1016C000054607E02DE0FFF707FC401B022801D983
:1016D000032032E60348006800F000700028F2D0D2
:1016E0001FE000000010024000004242800442421D
:1016F0000070004000200C490866FFF7EDFB05462E
:1017000006E0FFF7E9FB401B022801D9032014E69D
:101710000648006800F000700028F2D101E00120C6
:101720000BE6002009E600000000424200100240E3
:10173000042808D14FF0E021096941F004014FF07D
:10174000E022116107E04FF0E021096921F0040176
:101750004FF0E02211617047704770B5044625468E
:10176000681EB0F1807F01D301200FE0681E4FF0AA
:10177000E02148610F214FF0FF3000F065FE0020AE
:101780004FF0E021886107200861002070BD10B58E
:10179000FFF7E2FF10BD70472DE9F04704462068CF
:1017A00005682068C668206847694FF00008C14690
:1017B00005F00F08B8F1000F0AD105F0200038B18C
:1017C00006F0200020B1204600F0FCFFBDE8F087C5
:1017D000B8F1000F6DD007F0010018B906F4907051
:1017E000002866D005F0010030B106F4807018B111
:1017F000E06B40F00100E06305F0040030B107F059
:10180000010018B1E06B40F00200E06305F0020057
:1018100030B107F0010018B1E06B40F00400E06364
:1018200005F0080030B107F0010018B1E06B40F09E
:101830000800E063E06B68B305F0200028B106F013
:10184000200010B1204600F0BDFF20684069C0F3C1
:101850008019E06B00F0080010B9B9F1000F22D038
:10186000204600F085FF2068406900F04000B0B1DC
:101870002068406920F0400021684861606B50B1E9
:101880001748616B4863606BFEF706FF10B1606B31
:10189000416B88470CE02046FFF77DFF08E02046BB
:1018A000FFF779FF04E02046FFF775FF0020E063B3
:1018B0008CE705F0800030B106F0800018B12046BA
:1018C00001F080F982E705F0400030B106F04000F9
:1018D00018B1204600F05CFF78E700BF76E7000013
:1018E0007526000810B504460CB9012010BDA0698A
:1018F00000B100E000BF94F8390028B9002084F856
:101900003800204600F05EF8242084F83900206872
:10191000C06820F400502168C860204600F0A6FF8F
:101920002068006920F490402168086120684069BF
:1019300020F02A00216848612068C06840F4005007
:101940002168C8600020E063202084F8390084F812
:101950003A000020CAE7000010B504461549206887
:10196000884214D11448806920F48040124988616B
:101970004FF4C0611148FFF785F8606BFEF7E4FE95
:10198000206BFEF7E1FE2520FFF71EFB10E00C495F
:10199000206888420CD10848C06920F4003006490C
:1019A000C8610C210548FFF76DF82620FFF70CFBF6
:1019B00010BD000000380140001002400008014046
:1019C0000044004010B586B0044643492068884270
:1019D0005BD100BF4148806940F480403F49886145
:1019E0000846806900F48040019000BF00BF4815A0
:1019F0000290022003900320059002A93848FFF7C7
:101A0000DDF84FF48060029000200390049002A95A
:101A10003348FFF7D3F83348334908600020486063
:101A20000021314881608021C16049000161890045
:101A30004161202181610021C161FEF783FF18B15E
:101A40008C212AA001F038F900BF27486063446266
:101A500000BF24481438294908601020486000213C
:101A6000264881608021C16000210161416181615E
:101A7000C161FEF767FF18B19C211CA001F01CF9A1
:101A800000BF1E482063446224E01D49206888424C
:101A900020D100BF1148C06940F400300F49C8612F
:101AA0000846C06900F40030019000BF00BF042068
:101AB0000290022003900320059002A90848FFF736
:101AC0007DF80820029000200390049002A90448A9
:101AD000FFF774F806B010BD003801400010024056
:101AE00000080140580002404C0200202E2E2F53C7
:101AF00072632F75736172742E6300009002002070
:101B00000044004077B581B00446154694F83A0089
:101B1000202850D1029800B115B9012004B070BD41
:101B200000BF94F83800012801D10220F6E7012017
:101B300084F8380000BF0298A062A5850020E06309
:101B4000222084F83A001D48616B88621C48616B52
:101B5000C8621C48616B08630020616B486302AE79
:101B600032682368191D2B46606BFEF723FF00BF08
:101B70000020009020680068009020684068009075
:101B800000BF00BF00BF002084F8380000BF2068FD
:101B9000C06840F480702168C8602068406940F0E7
:101BA0000100216848612068406940F040002168D8
:101BB00048610020B2E70220B0E70000D926000803
:101BC0001F27000889260008704770472DE9F84351
:101BD00004460D4616461F464FF0000994F839009A
:101BE00020285CD105B116B90120BDE8F88300BFFB
:101BF00094F83800012801D10220F6E7012084F88A
:101C0000380000BF0020E063212084F83900FFF78E
:101C100063F98146A684E6842BE0E08C401EE084D4
:101C2000A068B0F5805F16D14B4600228021204687
:101C3000009700F0FBFF08B10320D6E7A846B8F8EC
:101C40000000C0F3080021684860206908B9AD1C95
:101C50000FE06D1C0DE04B460022802120460097CE
:101C600000F0E4FF08B10320BFE715F8010B21687D
:101C70004860E08C0028D0D14B460022402120460D
:101C8000009700F0D3FF08B10320AEE7202084F8CE
:101C9000390000BF002084F8380000BFA5E702200B
:101CA000A3E70000F7B50446154694F8390020284C
:101CB0003DD1019800B10DB90120FEBD00BF94F8DF
:101CC0003800012801D10220F7E7012084F838000C
:101CD00000BF01982062A584E5840020E0632120F4
:101CE00084F839001348216B88621348216BC8625D
:101CF0001248216B08630020216B486301AE236802
:101D00001A1D31682B46206BFEF754FE6FF0400021
:101D10002168086000BF002084F8380000BF2068F8
:101D2000406940F08000216848610020C5E702203A
:101D3000C3E700002D270008632700088926000854
:101D400010B504460F4920680968884219D100215E
:101D50000D4890F80E0380F001020C488154FFF703
:101D6000BBF80949C1F81003012081F814030846A3
:101D700090F80E130548405C18B10120024981F823
:101D8000150310BD7C00002018070020240A002045
:101D90007047000010B50248FFF7DEFD10BD0000DF
:101DA000CC01002070B501F06DFE05460024B5B1F0
:101DB00000F020F8044694B121460A4801F00CFFD7
:101DC000044600200749085507A000F077FF08489F
:101DD000006820B121460348054A1268904728460A
:101DE00070BD0000CC0000200D0A3C2D3A25730088
:101DF0000C00002010B501F0FFFD10BD70B50446C9
:101E00000D4600206055214603A000F057FF2946EB
:101E1000204601F013FF70BD0D0A2D3E3A257300D8
:101E200010B500B910BD01604260037201248474D2
:101E30004FF4FA64848205A4C46005240474002469
:101E40004474C824C47400BFECE700000000000024
:101E500008B500BF0648406940F0010004494861E8
:101E60000846406900F00100009000BF00BF08BDB7
:101E70000010024008B500BF0D48806940F0200006
:101E80000B4988610846806900F02000009000BF7F
:101E900000BF00BF0846806940F004008861084622
:101EA000806900F00400009000BF00BF08BD000082
:101EB0000010024010B5002211462520FFF79FF8C0
:101EC0002520FFF78FF8002211462620FFF797F80C
:101ED0002620FFF787F8002201210F20FFF78FF857
:101EE0000F20FFF77FF8002201210E20FFF787F86F
:101EF0000E20FFF777F810BD10B50C480C490860AC
:101F00004FF416504860002109488160C1600161AA
:101F10000C21416100218161C161FFF7E3FC18B12F
:101F20004E2104A000F0C8FE10BD000000380140A2
:101F3000CC0100202E2E2F5372632F7573617274A3
:101F40002E63000010B50C480C4908604FF4E130D6
:101F50004860002109488160C16001610C21416134
:101F600000218161C161FFF7BDFC18B1612104A0AE
:101F700000F0A2FE10BD0000004400400C02002052
:101F80002E2E2F5372632F75736172742E630000AF
:101F90002DE9F041054600242846FEF71DF91FFAF9
:101FA00080F800BF30E0285D302806DD285D392844
:101FB00003DA285D3038C7B214E0285D612806DDF9
:101FC000285D662803DA285D5738C7B20AE0285D25
:101FD000412806DD285D462803DA285D3738C7B278
:101FE00000E00027204604EBD0714910A4EB41012A
:101FF00009B93E4606E03007060EF019C6B244FAAB
:1020000004F02E54601C84B24445CCDB002005EB68
:10201000640108706010BDE8F08100002DE9F04710
:1020200086B004460D46904614B906B0BDE8F08768
:10203000B8F1000F06D1C1490878C1A20121A368F7
:102040009847F2E7BD480078012856D1BB48406860
:10205000BC49085C0D2819D00CDC032815D004DC21
:10206000012810D0022847D10EE004283BD00C28CC
:1020700042D11EE00E2838D00F2835D0112831D09B
:10208000172839D132E037E036E035E00F22AE488C
:102090002968FEF761F80021AB48801E417428686A
:1020A000FEF79AF806462A6831460220A368984748
:1020B00022E03A212868FEF785F806468EB1761CA4
:1020C0000F223146A0481030FEF746F800219E4806
:1020D000801E80F8211000F112020F210320A36856
:1020E000984709E008E007E006E005E097A2012133
:1020F0000846A368984700BF1DE19048007807286C
:1021000068D18E4840688F49085C09281ED004DCDD
:10211000072807D008285CD10EE00A2827D0172806
:1021200057D150E02868FEF757F806462A6831462E
:102130000620A36898474CE02868FEF74DF806464D
:102140002A6831460720A368984742E02C21286876
:10215000FEF738F806464EB1761C3046FEF73CF8DE
:102160000746324639460820A368984731E03A21AD
:102170002868FEF727F807464FF0000917B37F1CC1
:102180000A21384600F030F9C6B21C2E02D10FF2F7
:10219000C0190DE0142E02D10FF2B81908E0052E77
:1021A00002D10FF2B41903E0082E01D10FF2AC19DD
:1021B0004846FEF711F882464A4651460920A36870
:1021C000984700BF05E061A201210720A368984756
:1021D00000BFB0E0594800780A2824D15748406829
:1021E000012889D13A212868FDF7ECFF07467F1CBA
:1021F0000A21384600F0F8F800F0FF098F2000EBC4
:1022000049004FFA80FA534655A20A21286800F087
:1022100065FDC6B20020296888552A6831460A2023
:10222000A368984787E0454800780B2821D14348A8
:1022300040684C49085C132804D0142811D0172892
:1022400016D10FE04048801E2968098841843B4828
:102250004068012804D13DA201210B20A3689847C2
:1022600006E005E039A201210B20A368984700BFD2
:1022700061E0324800780E281AD130484068394968
:10228000085C0E2802D0172811D10AE000202E4940
:10229000891E81F8220001212B48801E80F823101E
:1022A00005E02AA201210E20A368984700BF42E062
:1022B000224800780C280BD1204840682949085C46
:1022C0000C2804D121A20121A368984700BF32E065
:1022D0001A4800780D282DD11848406801282AD1C5
:1022E00000262F6817E0701C86B20027062E00DB40
:1022F0001EE0062E05D012A201210D20A3689847EA
:1023000093E6049F3846FFF743FE06463A463146B9
:102310000D20A368984714A13846FDF765FF5DF8C6
:102320002610884201D1012000E000200028DAD1E7
:1023300000BF00E000BF00BF77E600006C00002097
:1023400046000000003D0008DA06002053000000AF
:102350003730300038303000383530003930300018
:1023600025640000113D00082C00000010B5044653
:102370000348808A10B1A1688868804710BD0000BA
:102380000007002070B505460E461446102D1FD2DA
:10239000DFE805F01E0813141516171E1E1E181967
:1023A0001A1B1C1D21460CA000F088FC2078532825
:1023B00002D103200B4908700BE00AE000BF00BF08
:1023C00000BF00BF00BF00BF00BF00BF00BF00E0F4
:1023D00000BF00BF002070BD0D0A494E49543A2588
:1023E000730000000800002070B505460C46224628
:1023F00000212846FDF71AFF70BD000070B50446A5
:102400000D46002604B105B970BD284601F0B6F8A6
:10241000064631466068426805489047A88A20B160
:10242000044A908AA2685168884700BFECE7000020
:10243000D40200200007002002480068C0F30220F8
:10244000704700000CED00E010B5002807DA0A071D
:10245000140E054A00F00F031B1FD45403E00A07B3
:10246000130E024A135410BD18ED00E000E400E022
:1024700008B508490968C9084FF47A72B1FBF2F14E
:102480004143009100BF00BF00994A1E00920029FD
:10249000F9D108BD0400002010B540F20221024825
:1024A000FDF773FE10BD0000D60400200020024995
:1024B00008704860704700006C00002010B50446AA
:1024C0000CB9002010BD2068406908B90020F9E768
:1024D0002068416920468847F4E710B5FEF702FD01
:1024E000FFF755F910BD000010B590B0012006901F
:1024F000000407900020089002200D90C1030E9167
:1025000041040F9106A8FEF7F3FE18B1F42114A0C0
:1025100000F0D2FB0F2001900220029000200390D7
:1025200004900590002101A8FEF7BCFD20B14FF4F6
:1025300081710BA000F0C0FBFEF75AFE4FF47A71D8
:10254000B0FBF1F42046FFF708F90420FFF7F0F89C
:1025500000221146501EFEF752FD10B010BD0000C3
:102560002E2E2F5372632F6D61696E2E6300000053
:102570001248006840F001001049086008464068B1
:102580000F4908400D494860084600680D49084059
:102590000A4908600846006820F480200860084660
:1025A000406820F4FE0048604FF41F00886000205F
:1025B000C862C80304490860704700000010024068
:1025C0000000FFF8FFFFF6FE08ED00E070B51648CA
:1025D000007838B3FEF780FC044614480068844253
:1025E00003D912480068201A03E0601E0F490968E9
:1025F000401A05460E480068A84207D90C480068F2
:10260000401B0B490860094804600AE000200849A3
:102610000860054908700748006810B1054800685F
:10262000804700BF70BD0000BC000020B400002047
:10263000B8000020B0000020014908607047000089
:10264000B000002010B5044604480460FEF744FCC6
:102650000349086001200349087010BDB400002040
:10266000B8000020BC00002000200149087070471D
:10267000BC00002070B505466C6A0020E085E0844F
:102680002046FFF788F870BD70B506460025746ACD
:1026900020684069C0F3C01594F83900212805D19D
:1026A00025B10020E084204600F082F820684069CF
:1026B000C0F3801594F83A00222805D125B10020F6
:1026C000E085204600F054F8E06B40F01000E06335
:1026D0002046FFF760F870BD70B505466C6A286843
:1026E000006800F02000B0B90020E0852068C068D4
:1026F00020F480702168C8602068406920F00100E3
:10270000216848612068406920F0400021684861E4
:10271000202084F83A002046FFF756FA70BD70B5C5
:102720000446656A2846FFF750FA70BD70B5054645
:102730006C6A2868006800F0200070B90020E0840E
:102740002068406920F08000216848612068C068E6
:1027500040F040002168C86002E02046FFF7F0FA30
:1027600070BD70B50446656A2846FFF711FB70BD61
:102770000168C96821F490710268D16001684969F3
:1027800021F0010102685161202180F83A10704760
:1027900010B504462068C06820F040002168C86079
:1027A000202084F839002046FFF7CAFA002010BD27
:1027B0000168C96821F0C0010268D160202180F859
:1027C0003910704770B5044694F83A0022284AD16F
:1027D000A068B0F5805F13D1A56A206940B9206870
:1027E0004068C0F308002880A06A801CA06219E03D
:1027F00020684068C0B22880A06A401CA06211E036
:10280000206938B920684068C1B2A26A501CA06231
:10281000117007E02068406800F07F01A26A501C38
:10282000A0621170E08D401E80B2E085C8B92068BA
:10283000C06820F020002168C8602068C06820F4CB
:1028400080702168C8602068406920F0010021681C
:102850004861202084F83A002046FFF7B5F90020AF
:1028600070BD0020FCE70220FAE700002DE9F041EE
:10287000044600252068006920F44050E1680843C0
:10288000216808612169A068084361690843E1691A
:10289000084305432068C06849F20C618843284317
:1028A0002168C8602068406920F44070A16908432D
:1028B00021684861E069B0F5004F7CD1C0492068CB
:1028C00088425DD1FEF7AAFC00EBC00101EB0010CD
:1028D00061684900B0FBF1F06421B0FBF1F0060142
:1028E000FEF79CFC00EBC00101EB001061684900A1
:1028F000B0FBF1F7FEF792FC00EBC00101EB00101A
:1029000061684900B0FBF1F06421B0FBF1F000EB2D
:10291000C00101EB0010A7EB8000322101EBC000E9
:102920006421B0FBF1F000F0F80006EB4006FEF782
:1029300075FC00EBC00101EB001061684900B0FBC1
:10294000F1F7FEF76BFC00EBC00101EB00106168D2
:102950004900B0FBF1F06421B0FBF1F000EBC001E5
:1029600001EB0010A7EB8000322101EBC0006421D5
:10297000B0FBF1F000F007003044216888601CE1F2
:10298000FEF73CFC00EBC00101EB00106168490060
:10299000B0FBF1F06421B0FBF1F00601FEF72EFC74
:1029A00000EBC00101EB001061684900B0FBF1F7DA
:1029B000FEF724FC00E043E000EBC00101EB001057
:1029C00061684900B0FBF1F06421B0FBF1F000EB6D
:1029D000C00101EB0010A7EB8000322101EBC00029
:1029E0006421B0FBF1F000F0F80006EB4006FEF7C2
:1029F00005FC00EBC00101EB001061684900B0FB71
:102A0000F1F7FEF7FBFB00EBC00101EB0010616882
:102A10004900B0FBF1F06421B0FBF1F000EBC00124
:102A200001EB0010A7EB8000322101EBC000642114
:102A3000B0FBF1F000F00700304421688860BCE092
:102A40005F49206888425CD1FEF7E8FB00EBC001DB
:102A500001EB001061688900B0FBF1F6FEF7DEFBC8
:102A600000EBC00101EB001061688900B0FBF1F0E0
:102A70006421B0FBF1F000EBC00101EB0010A6EB0C
:102A80008000322101EB00106421B0FBF1F000F076
:102A9000F006FEF7C3FB00EBC00101EB001061681C
:102AA0008900B0FBF1F06421B0FBF1F006EB0016F9
:102AB000FEF7B4FB00EBC00101EB00106168890078
:102AC000B0FBF1F7FEF7AAFB00EBC00101EB001031
:102AD00061688900B0FBF1F06421B0FBF1F000EB1C
:102AE000C00101EB0010A7EB8000322101EB0010C8
:102AF0006421B0FBF1F000F00F00304421688860E1
:102B00005BE0FEF77BFB00EBC00101EB00106168AE
:102B10008900B0FBF1F6FEF771FB00EBC00101EBA1
:102B2000001061688900B0FBF1F06421B0FBF1F0A6
:102B300000EBC00101EB0010A6EB8000322101EB9D
:102B400000106421B0FBF1F000F0F006FEF756FB38
:102B500000EBC00101EB001061688900B0FBF1F0EF
:102B60006421B0FBF1F006EB0016FEF747FB00EB2B
:102B7000C00101EB001061688900B0FBF1F7FEF7BE
:102B80003DFB00EBC00101EB001061688900B0FB68
:102B9000F1F06421B0FBF1F000EBC00101EB00109B
:102BA000A7EB8000322101EB00106421B0FBF1F0B3
:102BB00000F00F00304421688860BDE8F08100001B
:102BC00000380140014691F8390021282CD188684D
:102BD000B0F5805F0FD10A6A1088C0F308000B6857
:102BE0005860086918B9086A801C086209E0086A18
:102BF000401C086205E00B6A581C086218780B68D4
:102C00005860C88C401E80B2C88458B90868C06833
:102C100020F080000B68D8600868C06840F0400071
:102C20000B68D860002070470220FCE72DE9F041D6
:102C300004460D4617469846069E21E0701CF8B1E2
:102C40002EB1FEF749F9A0EB0800B04218D9206870
:102C5000C06820F4D0702168C8602068406920F006
:102C6000010021684861202084F8390084F83A0086
:102C700000BF002084F8380000BF0320BDE8F081C9
:102C8000206800682840A84201D1012000E000200F
:102C9000B842D3D00020F1E710B50248FEF77CFD22
:102CA00010BD0000CC01002010B50248FEF774FDF5
:102CB00010BD00000C02002000BFFEE70FB4054B62
:102CC00010B503A9044A029800F030F810BC5DF872
:102CD00014FB000029360008C40000200FB41CB506
:102CE0000A46521ECDE9000207A9054B6A4606981E
:102CF00000F01CF8009A002111701CBC5DF814FB58
:102D00006F30000800487047C800002002E008C883
:102D1000121F08C1002AFAD170477047002001E055
:102D200001C1121F002AFBD1704700002DE9FF4F9F
:102D30008BB088460546002606E025280BD0DDE945
:102D40000D1290476D1C761C28780028F5D10FB025
:102D50003046BDE8F08F0024A146A2460122AE49CC
:102D600000E0044315F8013F203B02FA03F008425B
:102D7000F7D128782A2810D06FF02F022878A0F1F8
:102D80003001092915D809EB890102EB410144F012
:102D9000020400EB01096D1CF0E758F8041B5FEA20
:102DA000010903D544F40054C9F1000944F00204B8
:102DB0006D1C28782E2817D115F8010F44F0040453
:102DC0002A280ED06FF02F022878A0F130010929AF
:102DD0000AD80AEB8A0102EB410100EB010A6D1CE3
:102DE000F2E758F804AB6D1C28786C280FD006DC8D
:102DF0004C2817D068280DD06A2814D104E0742814
:102E000010D07A280FD10DE044F400140AE044F405
:102E1000801401E044F440146978814202D104F541
:102E200080146D1C6D1C2878692865D006DC00288C
:102E30008DD0632827D0642806D15DE06E2808D0A5
:102E400073282AD0752877D0DDE90D129047761CBB
:102E5000E0E0C4F30250022809D003280DD0D8F8CE
:102E6000001004280DD00E6008F10408D2E0D8F854
:102E70000010F217C1E90062F6E7D8F800100E80E2
:102E8000F2E70E70F0E718F8041B8DF80010002030
:102E90008DF80100EB46012003E058F804BB4FF029
:102EA000FF3061074FF0000701D40AE07F1C57454F
:102EB0000DDA8742FADB1BF807100029F6D106E08D
:102EC0007F1C8742FCDB1BF807100029F8D1DDE9E5
:102ED0000D23A9EB07008146214600F0B1F83044EC
:102EE000C61904E0DDE90D121BF8010B90477F1EA7
:102EF000F8D22146484688E058F8040BC4F3025142
:102F00004FF00A0B032900D100B2042900D140B2CE
:102F1000002802DA40422D2102E0210505D52B21AF
:102F20008DF82410012104E006E0E10710D02021F3
:102F3000F6E708AF089113E058F8040BC4F3025108
:102F40004FF00A0B032900D180B2042900D1C0B28E
:102F50000021EEE75946FDF7A2F9303107F8011DCF
:102F60000028F7D1ADEB070000F1200B600702D578
:102F700024F4803401E04FF0010ADA4502DDAAEBC7
:102F80000B0000E00020824600EB0B010898014492
:102F9000A9EB01000A90E00306D4DDE90D232146E8
:102FA0000A9800F04DF806444FF0000908E009A91E
:102FB00011F80900DDE90D12904709F10109761CAD
:102FC00008998945F3DBE0030CD5DDE90D232146A3
:102FD0000A9800F035F8064404E0DDE90D123020CF
:102FE0009047761CBAF10001AAF1010AF5DC05E070
:102FF000DDE90D1217F8010B9047761CBBF10001BB
:10300000ABF1010BF4DC0A982146DDE90D2300F059
:1030100005F806446D1C97E6092801002DE9F041EA
:10302000044600251E461746880404D405E03946A8
:103030002020B0476D1C641EF9D52846BDE8F081FC
:103040002DE9F041044600251E469046C80301D5EF
:10305000302700E02027880404D505E041463846A3
:10306000B0476D1C641EF9D52846BDE8F0814A685A
:10307000002A06D00A68531C0B6010704868401E76
:10308000486070472DE9F04706460C4615464FF05C
:1030900000090027B846A01B022800DBA41E16A1C9
:1030A0002046FDF77DF8070024D0A74204D112A1E5
:1030B000A01CFDF775F807464FB9A01BC0B22880C9
:1030C000288810B10120BDE8F0870020FBE7BF1C75
:1030D000381B00F0FF08288840450BDB2888A0EB50
:1030E00008002880288810B94FF0010902E0B44296
:1030F00000D146444846E6E70D0A00002DE9F043BA
:103100008FB0064677684FF000085248007800F00C
:103110000100002848D0DFF840910025484600F023
:10312000CFF90446002C1EDB012C1CDC4B48C07C74
:1031300000B102D13846FFF719F906E0681CC5B2A4
:103140004FF000090F2D00DB07E045A14846FDF7D1
:103150004BF84DF825000028F0D100BF1DB9002024
:103160000FB0BDE8F083012C0CD101226946304636
:10317000FEF754FF0121304600F076F88046FFF755
:103180008BF90AE04CB93548C07C20B900213046A3
:1031900000F06AF88046FFF77FF92E48008880F03B
:1031A00001002C49088000BF2A48007800F0020086
:1031B00060B1FFF771F90021304600F055F8804604
:1031C0002448008880F002002249088021480078C5
:1031D00000F0040050B1304600F0BCFB012805D1DE
:1031E0001C48008880F004001A49088019480078BB
:1031F00000F0080050B1304600F0ACFB012805D1CA
:103200001448008880F008001249088011480078AE
:1032100000F0100050B1134A01210A20B36898470A
:103220000C48008880F010000A490880B8F1000FAF
:103230000ED0FDF7E5F820B108493846FFF7DEF873
:1032400006E0012200213046FEF7E8FEFFF72EF9E6
:10325000012085E774000020D6040020000700202C
:103260000D0A0000D90600202DE9F04104460D4664
:103270000027666845B11B48807C012801D10127E1
:103280002CE0FFF713F929E01648807C012821D1B2
:103290001448407C401C134948740846407C097C13
:1032A00088420FDA1048B0F80012706842680E4881
:1032B00090470C48808A88B10A4A908AB26851685F
:1032C00088470BE0002211462046FEF7A7FEFFF7D5
:1032D000EDF803E00348807C00B901273846BDE8DB
:1032E000F081000000070020D40200202DE9F04703
:1032F00080460E464FF00009002738A14046FCF7F3
:103300004FFF070014D03A213846FCF75BFF044614
:1033100024B1641C2078303832494870324639462E
:103320004046FFF7AFFE8146102000F0ADF817E0F1
:103330002DA14046FCF734FF070011D03A21384652
:10334000FCF740FF044624B1641C2078303825493E
:103350000870324639464046FFF794FE814600BF6A
:1033600023A14046FCF71CFF070025D03A21384630
:10337000FCF728FF04463CB1641C0A212046FFF7F5
:1033800033F8184981F824002C212046FCF71AFF55
:1033900005463DB1641C0A212846FFF725F881B295
:1033A0001048C184324639464046FFF76BFE8146DD
:1033B000042000F069F80EE00FA14046FCF7F0FE93
:1033C000070008D0324639464046FFF75BFE81468B
:1033D000082000F059F84846BDE8F0872B434552D5
:1033E00045470000D80600202B4353434F4E0000B2
:1033F0002B4E534F4E4D49002B4E4E4D4900000071
:1034000013B50446BDF8040000B91CBDBDF8041096
:1034100018A0FFF753FC01A92046FFF767FF30BB58
:10342000BDF8040000B9F0E7214614A0FFF746FC00
:103430001448B0F80002BDF804100844B0F5007F4D
:1034400012DA1049B1F800120E4A8818BDF80420AB
:103450002146FCF781FE0B48B0F80002BDF80410CD
:1034600008440849A1F80002012000F00DF800BF4F
:10347000CBE700006C656E3A256400003C2D3A3ABB
:1034800025730000D6040020024909880143014A3F
:10349000118070477400002010B50220FFF7F4FF80
:1034A00010BD10B504460CB9002010BD2068006A9C
:1034B00008B90020F9E72068016A20468847F4E748
:1034C00070B504464FF0FF351348C06868B913A1C2
:1034D0002046FCF765FE08B101251BE010A120463F
:1034E000FCF75EFEB0B1002514E00CA12046FCF70D
:1034F00057FE48B10848C1682046FCF751FE08B1A4
:10350000012507E0002505E005A12046FCF748FE5F
:1035100000B10025284670BD000700204F4B000079
:103520004552524F5200000010B504460CB900201D
:1035300010BD2068806908B90020F9E7206881691A
:1035400020468847F4E700000B49B1F8000100BFAE
:10355000094931F81010091201B10AE0411C89B281
:103560000846802900DB00200349B1F800118142A0
:10357000EED100BF704700001807002038B50446A0
:1035800000250CB9284638BD4FF400711D48FCF7E2
:10359000FCFD00201B49A1F80002207A40B91AA2C4
:1035A0004FF4007117482368FFF798FB85B223E0BA
:1035B000207A012807D116A2410212482368FFF79A
:1035C0008DFB85B218E0207A02280AD1606800904D
:1035D00011A24FF400710B482368FFF77FFB85B2FF
:1035E0000AE0207A032807D10DA24FF400710548A4
:1035F0002368FFF773FB85B20248A0F80052284603
:10360000C1E70000D402002025733D3F0D0A0000F1
:1036100025733F0D0A00000025733D25730D0A0038
:1036200025730D0A0000000013B50C464FF6FF731A
:10363000012269460248FEF7C9FA00981CBD000045
:103640000C02002010B504460CB9002010BD206803
:10365000006908B90020F9E7206801692046884719
:10366000F4E710B504460CB9002010BD206880684E
:1036700008B90020F9E72068816820468847F4E708
:1036800010B504460CB9002010BD2068C06808B908
:103690000020F9E72068C16820468847F4E710B5A4
:1036A00004460CB9002010BD2068406808B900200D
:1036B000F9E72068416820468847F4E770B504467A
:1036C00065680C48007808B1002070BD0323002213
:1036D000094801680948FEF7A3FB01200549087065
:1036E00048604FF4FA60054988822846FEF786FE56
:1036F0000120EAE76C0000201000002000070020F5
:1037000070B5044665680D48007808B1002070BDAA
:10371000032300220A4801680A48FEF781FB0120C2
:1037200008490874042005490870012048600549CB
:103730002846FEF763FE0120E9E700006C00002048
:103740004000002000070020FDF7D4FBFEF7CCFE70
:10375000FEF790FBFEF77CFBFEF7CEFBFEF7F2FBDD
:10376000FEF7A8FB474800F0C5F80120464908705D
:1037700046A0FFF7A3FA84E0FEF714FB4148FFF7E9
:10378000BDFCFEF723FF404800780C2877D2DFE825
:1037900000F0060761111B252F3943574D6B6FE071
:1037A00044A0FFF78BFA3748FFF779FF0C20364922
:1037B000087065E048A0FFF781FA3248FEF77EFE08
:1037C0000C20314908705BE03AA0FFF777FA2D48EA
:1037D000FFF765FF0C202C49087051E035A0FFF77A
:1037E0006DFA2848FFF75BFF0C202749087047E077
:1037F00030A0FFF763FA2348FFF760FF0C2022494F
:1038000008703DE02BA0FFF759FA1E48FFF756FF5E
:103810000C201D49087033E026A0FFF74FFA194825
:10382000FFF74CFF0C201849087029E021A0FFF792
:1038300045FA1448FFF742FF0C20134908701FE0B7
:103840001CA0FFF73BFA0F48FFF738FF0C200E498A
:10385000087015E017A0FFF731FA0A48FFF72EFFAE
:103860000C20094908700BE012A0FFF727FA054861
:10387000FFF715FF0C200449087001E0FFE700BFC7
:1038800000BF79E7A4000020080000200A0D2055A1
:10389000415254205072696E7466204578616D7093
:1038A0006C6520746F2074686520554152540A0D70
:1038B000000000000D0A2042433935204D6F647529
:1038C0006C6520697320696E697469616C697A69D5
:1038D0006E672E2E2E0000000D0A2042433935203F
:1038E0004D6F64756C65207369676E2073746174C5
:1038F000653A000010B504460CB9002010BD2068E0
:10390000006808B90020F9E70348206020680168D2
:10391000204688470120F1E71C3D000870B50546A8
:103920006C68002008490880FEF7C0FDFEF7B4FD72
:1039300021886068026805489047A06801680448CB
:103940008847012070BD0000740000200134000889
:10395000993400082DE9FF4106467768164800783B
:1039600018B1002004B0BDE8F081EC2425461348CE
:10397000C08CA04201DA1148C58C1048009590F81F
:1039800024300FA20A2101A8FFF7A8F984B2002071
:1039900001A90855022301AA0B4801680B48FEF74C
:1039A0003FFA0D2004490870012048600749384655
:1039B000FEF724FD0120D5E76C000020D80600208A
:1039C00025642C2564000000500000200007002022
:1039D00070B504460D4616460CB9002070BD20682F
:1039E000C06908B90020F9E7206832462946C36952
:1039F00020469847F2E7000000210B48B0F800018C
:103A0000094A32F81000001260B9002008E0064AA6
:103A100032F8102012120AB94A1C91B2421C90B21C
:103A20008028F4DB084670471807002070B504466C
:103A30000D46FF22511C1048FCF7A0FB00200E4948
:103A4000A1F80001A1F8020181F80401C1F8080100
:103A500081F80C030021084880F80D130020064966
:103A600081F80E0381F8140381F8150303480460FC
:103A700003480560084670BD180700207800002044
:103A80007C0000202DE9F0410025A8465048B0F800
:103A900000014F4931F810000012002848D1FFF70B
:103AA00053FD06464A48B0F80201B0420FD04848DC
:103AB000A0F8026190F8040120B9FDF70DFA44491D
:103AC000C1F808010520424981F804012CE0404872
:103AD00090F8040140B3FDF7FFF904463C4890F824
:103AE0000401A04204D83A4890F80401201A05E0E5
:103AF000374890F80401C0F1FF30204407463448AD
:103B000090F80401B8420AD9314890F80401C01B6A
:103B10002F4981F804010846C0F8084103E000205D
:103B20002B4981F8040100BFFFF766FF054603E05B
:103B30000020274981F80401702D02DB4FF00108B5
:103B400006E02DB1224890F8040108B94FF00208B0
:103B50001F4890F8140378B1FDF7BEF91C49D1F85D
:103B60001013441A1A4890F80F03A04203D2002001
:103B7000174981F8140300BF154890F8150310B3D6
:103B8000134890F81403F0B90020114981F8150387
:103B90001048006878B10A4692F80E3301F5437276
:103BA000D15C0B4A92F80E3302F5867202EB0320C9
:103BB000084A12689047064890F80E0380F001000A
:103BC000034981F80E0308F0FF00BDE8F081000012
:103BD000180700207800002030B50246002026E0BB
:103BE000154BB3F80031144C34F813301B1203B1E9
:103BF0001FE0114BB3F800310F4C14F8133002F8EA
:103C0000013B4FF6FF73B4F800410B4D25F814301B
:103C10002B46B3F800315B1C9BB22C46A4F8003154
:103C2000802B02DB0023A4F80031431C98B28842A9
:103C3000D6DB00BF30BD000018070020F0B50446F9
:103C40000B462048805C1844B0F5807F01DD0020E1
:103C5000F0BD1D4890F80E231A48855C00210AE04B
:103C6000675C1A4800EB022C28466E1CF5B20CF873
:103C70000070481C81B29942F2DB134890F80E03A1
:103C8000904213D0104890F80E230E48855C002116
:103C90000AE0675C0D4800EB022C28466E1CF5B26A
:103CA0000CF80070481C81B29942F2DB82F00106E8
:103CB0000448805D18B90120034E86F815030846B4
:103CC000C6E70000240A002018070020240800206E
:103CD00070B504460D462A4621460248FDF7E2FF2C
:103CE00070BD0000CC0100200000000000000000BA
:103CF0000102030406070809000000000102030492
:103D00000001030D0C040F0E050617000708090A31
:103D10001700131700141700151700001D390008AD
:103D2000BD360008633600088136000845360008B5
:103D30000137000829350008D1390008A3340008EC
:103D4000FD3000080040404040404040404041417C
:103D50004141414040404040404040404040404060
:103D600040404040400502020202020202020202FA
:103D700002020202022020202020202020202002F7
:103D80000202020202029090909090901010101087
:103D90001010101010101010101010101010101023
:103DA00002020202020288888888888808080808B7
:103DB0000808080808080808080808080808080883
:103DC0000202020240000000453D000841542B4E13
:103DD00042414E443F00000041542B434552454769
:103DE0003F00000041542B4E434F4E4649473F0091
:103DF00041542B434F50533F0000000041542B438C
:103E0000474154543F00000041542B434D45450069
:103E100041542B4E534F52460000000041542B4357
:103E2000474D490041542B43494D490041542B4EC5
:103E30004E4D490041542B4E534D490041542B4E99
:103E4000534F434C0000000041542B43474D4D005D
:103E500041542B4353434F4E0000000041542B4329
:103E600047534E0041542B4346554E0041542B437B
:103E70005351000041542B4E534F43520000000059
:103E800041542B43474D520041542B4E55455354FA
:103E9000415453004154000041542B434741545472
:103EA00000000000C43E000800000020CC0000001C
:103EB0000C2D0008903F0008CC000020640D00008D
:103EC0001C2D00080000000000366E0100000000FC
:103ED00000000000943E0008083E00081C3E000858
:103EE000483E0008803E0008CC3D0008E43D000844
:103EF0005C3E0008243E0008983E0008983E0008FA
:103F0000FC3D00086C3E0008F03D0008D83D00086C
:103F1000883E0008103E0008643E0008503E00083D
:103F2000343E00082C3E00083C3E0008743E000869
:103F30000000000000000000000000000000000081
:103F40000000000039260008452600086926000800
:103F5000510A0008FD1D0008951D0008802500007D
:103F60008C0000208000002000000000980000204D
:103F70008523000800000000000000000000000091
:103F80000000000000000000000000000000000031
:0400000508000121CD
:00000001FF
