:020000040800F2
:10000000480E0020010100080D250008E51E00082B
:1000100061200008F3030008F92B0008000000002D
:10002000000000000000000000000000992500080A
:10003000450400080000000049250008B925000813
:100040001B0100081B0100081B0100081B01000820
:100050001B0100081B0100081B0100081B01000810
:100060001B0100081B0100081B0100081B01000800
:100070001B0100081B010008F9030008090400081F
:100080001B0100081B0100081B0100081B010008E0
:100090001B0100081B0100081B0100081B010008D0
:1000A0001B0100081B0100081B0100081B010008C0
:1000B0001B0100081B0100081B0100081B010008B0
:1000C0001B0100081B0100081B0100081B010008A0
:1000D0001B010008E92B00081B0100081B01000898
:1000E0001B0100081B0100081B010008DFF80CD0F1
:1000F00000F050F900480047DD380008480E0020A5
:100100000648804706480047FEE7FEE7FEE7FEE7B1
:10011000FEE7FEE7FEE7FEE7FEE7FEE755260008FE
:10012000ED000008202A04DB203A21FA02F0002129
:10013000704721FA02F3D040C2F1200291400843F7
:100140001946704740EA01039B0703D009E008C93C
:10015000121F08C0042AFAD203E011F8013B00F88C
:10016000013B521EF9D27047D2B201E000F8012BD8
:10017000491EFBD270470022F6E710B513460A4627
:1001800004461946FFF7F0FF204610BD30B505467E
:100190002A460B4612F8010B13F8014B08B1A04296
:1001A000F8D01CB1002802D06D1CF1E7284630BD04
:1001B000CAB2401E10F8011F8A4202D00029F9D1AC
:1001C00000207047421C10F8011B0029FBD1801A47
:1001D0007047000070B50F4D00B92868002412E088
:1001E0000A4602E09E4203D0521C1378002BF9D13C
:1001F000DAB2224305D02BB124B1002100F8011B53
:1002000004E00446401C0678002EE9D12860204610
:1002100070BD0000C80000202DE9F05F93460F4636
:1002200080460446002602F023FDD0F80090824666
:1002300014F8015B2DB100F059F80068405DC0076B
:10024000F6D12B2D02D02D2D1AD0641E0021CAF814
:1002500000105A463946204600F04CF8014627B1B6
:100260003868A04201D1C7F80080DAF800000228FF
:1002700009D0CAF80090700505D54842BDE8F09F46
:1002800046F48066E2E70846F8E72DE9F05F0546A8
:10029000002092469B4688460646814640241BE045
:1002A0002846414647462246FFF73CFF53465A46FA
:1002B000C01A914110D311461846224600F07CF82E
:1002C0002D1A67EB01084F4622460120002100F05D
:1002D00073F817EB00094E41201EA4F10104DFDC86
:1002E000484631462A464346BDE8F09F00487047DD
:1002F000B04000082DE9F05F8246007800271546DF
:100300008B460AF10104B946302801D09DB113E0B3
:1003100014F8010B0127782803D0582801D045B1E3
:100320000AE00DB1102D07D10027102514F8010B9C
:1003300002E0082500E00A250026B0460EE005FB95
:10034000080005FB06F1012701EB10461FFA80F8B3
:10035000B6F5803F00D3B94614F8010B294600F0EA
:100360003AF80028EBDABBF1000F05D00FB1641E9C
:1003700000E05446CBF80040B9F1000F06D002F07F
:1003800077FC02210160C81EBDE8F09F48EA0640E4
:10039000FAE70000064C074D06E0E06840F0010374
:1003A00094E8070098471034AC42F6D3FFF7A2FE5A
:1003B00088410008A8410008202A04DB203A00FAFE
:1003C00002F1002070479140C2F1200320FA03F3AC
:1003D0001943904070473A2800D2303820F020026C
:1003E000412A01D3A2F13700884201D34FF0FF30F8
:1003F000704700BFFEE7000010B5024800F0F2F9B8
:1004000010BD00009802002010B5024800F0EAF983
:1004100010BD00005402002030B590F84050012477
:10042000AC40C56B6C60046863604468102C04D1F8
:100430000468A2600468E16003E00468A1600468E5
:10044000E26030BD7047000000B5884800780128A0
:100450007FD186484068401C84494860084640680F
:100460008349085C172801D1002000BD7F484068FF
:100470007F49085C801E10286AD2DFE800F008106F
:100480003458616969696969241C4A3C692C0223F2
:1004900078A279480168794801F026FD58E00223E6
:1004A00074A277480168754801F01EFD42F2107091
:1004B000724988824CE003230022724801686F4829
:1004C00001F012FD44E002236AA26F4801686B4804
:1004D00001F00AFD3CE0022366A26C48016867480F
:1004E00001F002FD34E0022362A26948016863481A
:1004F00001F0FAFC2CE002235EA2664801685F4826
:1005000001F0F2FC40F6B8305C4988820120C874E2
:100510001EE0012300225F480168584801F0E4FC16
:1005200040F6B830554988820120C87410E0022393
:1005300050A259480168514801F0D6FC08E008E093
:10054000022356A2564801684C4801F0CDFC00BF7A
:100550008AE046480078072830D144484068401C6B
:1005600042494860084640684149085C172801D163
:1005700000207AE73D4840683D49085C082804D0DF
:1005800009280AD00A2818D10FE003230022454881
:1005900001683A4801F0A8FC0FE00323002242481A
:1005A0000168364801F0A0FC07E0012300223F4823
:1005B0000168324801F098FC00BF55E02B480078F4
:1005C0000B2825D129484068401C28494860084626
:1005D00040683749085C172801D1002045E72348C7
:1005E00040683349085C132809D014280FD102232E
:1005F00030A231480168214801F076FC07E002236F
:100600002EA2334801681D4801F06EFC00BF2BE0AC
:10061000164800780E2806D114484068401C13493B
:100620004860002021E7114800780C2806D10F48C7
:100630004068401C0D494860002016E70B480078D0
:100640000D2806D109484068401C08494860002030
:100650000BE7064800780F2806D104484068401C84
:1006600002494860002000E70120FEE678000020F3
:10067000D03F0008310000001C000020300A00209C
:100680005C000020380000203400002050000020D2
:1006900060000020440000206400002032000000C0
:1006A0006800002024000020280000202C000020EA
:1006B000E13F0008300000006C0000204447524138
:1006C0004D2C31372C31303030302C3100000000CF
:1006D0007000002070B50446002594F8210002281F
:1006E00003D00420A063012548E02068006820F0C2
:1006F0000E00216808602068006820F00100216871
:1007000008601F492068884201D1012026E01C4969
:1007100014312068884201D110201FE01849283187
:100720002068884201D1801518E015493C312068C5
:10073000884201D1801411E011495031206888426B
:1007400002D14FF4803009E00D49643120688842BD
:1007500002D14FF4801001E04FF080700849083951
:100760004860012084F8210000BF002084F82000A8
:1007700000BF606B10B12046616B8847284670BD92
:1007800008000240014609B9012070470868006866
:1007900020F001000A68106000200A6810600A68F2
:1007A00050600A6890600A68D0600D4A0868801A34
:1007B0001422B0FBF2F08000086409480838C863CE
:1007C00091F8402001209040CA6B5060002088635F
:1007D00081F8210000BF81F8200000BF00BFD4E7EE
:1007E0000800024070B50446E06B056820680668A2
:1007F00094F84010042088402840002846D006F095
:100800000400002842D02068006800F0200028B9C9
:100810002068006820F004002168086057492068BB
:10082000884201D1042027E05449143120688842CD
:1008300001D1402020E0514928312068884201D16F
:10084000001519E04D493C312068884202D14FF42F
:10085000804011E0494950312068884202D14FF46C
:10086000802009E0454964312068884202D14FF474
:10087000800001E04FF08060404908394860E06A3C
:1008800000287AD02046E16A884776E094F8401044
:10089000022088402840A0B306F0020088B32068F8
:1008A000006800F0200040B92068006820F00A00CD
:1008B00021680860012084F82100304920688842BE
:1008C00001D1022028E02D4914312068884201D14D
:1008D000202021E0294928312068884201D1401593
:1008E0001AE026493C312068884202D14FF400507A
:1008F00012E0224950312068884203D14FF4003081
:100900000AE017E01D4964312068884202D14FF4A3
:10091000001001E04FF0007018490839486000BF2E
:10092000002084F8200000BFA06A30B32046A16AEE
:10093000884722E094F84010082088402840E0B121
:1009400006F00800C8B12068006820F00E00216899
:10095000086094F8401001208840E16B4860012055
:10096000A06384F8210000BF002084F8200000BFAD
:10097000206B10B12046216B884770BD08000240F3
:100980000146002209B901207047184B0868C01AB7
:100990001423B0FBF3F08000086414480838C863DF
:1009A000022081F821000868026843F6F070824353
:1009B000D1E901031843CB6818430B6918434B690D
:1009C00018438B691843CB691843024308680260D7
:1009D00000208862C862086348638863012081F848
:1009E0002100002081F8200000BFCDE70800024070
:1009F0002DE9F04104460D4616461F464FF000080B
:100A000000BF94F82000012802D10220BDE8F08147
:100A1000012084F8200000BF94F8210001282CD187
:100A2000022084F821000020A0632068006820F0E4
:100A30000100216808603B46324629462046FFF700
:100A4000EBFCE06A30B12068006840F00E002168DD
:100A500008600BE02068006820F00400216808604E
:100A60002068006840F00A0021680860206800687B
:100A700040F001002168086006E000BF002084F813
:100A8000200000BF4FF002084046BFE770B50446A3
:100A90000D4600BF064804600649074803F036F9D2
:100AA000064680223146054801F090F870BD0000EE
:100AB0000C00002000380140B13F0008D4010020A4
:100AC00070B5044600F03AFA06462546681C10B197
:100AD00004480078054400BF00F030FA801BA842AB
:100AE000FAD370BD080000202DE9F04102460B4604
:100AF00000200021002400267FE00127874007EA2C
:100B00000301002978D0FF2901D8174600E0171DFE
:100B10003D46FF2901D8870002E0A0F10807BF0089
:100B20003E462F684FF00F0C0CFA06FC27EA0C0724
:100B30004FF0040C0CFA06FC47EA0C072F60D7684C
:100B40008F43D760304F4FEA900C57F82C408707FF
:100B50004FEA177C0F2707FA0CF73C402B4FBA429D
:100B600001D100270FE02A4FBA4201D101270AE044
:100B7000284FBA4201D1022705E0274FBA4201D1DE
:100B8000032700E004274FEA807C4FEA1C7C07FA29
:100B90000CF7A74230D187074FEA177C0F2707FAD7
:100BA0000CF4194F4FEA900C57F82C70A743DFF85C
:100BB00058C04FEA90084CF82870184F3F688F4390
:100BC000DFF858C0CCF800700CF104073F688F4381
:100BD0000CF1040CCCF800700CF104073F688F4353
:100BE0000CF1040CCCF800700CF104073F688F4343
:100BF0000CF1040CCCF80070401C23FA00F7002F15
:100C00007FF47BAFBDE8F08108000140000801409F
:100C1000000C01400010014000140140000401409C
:100C20002DE9F847034600240020002584460027CC
:100C300000226EE14FF0010808FA02F4D1F80080BA
:100C400008EA0400A0427DD1DFF8D0A2D1F80480E8
:100C5000A8EB0A09D0453AD014DCB8F1030F50D004
:100C600009DCB8F1000F31D0B8F1010F1CD0B8F198
:100C7000020F49D120E0B8F1110F18D0B8F1120FCE
:100C800042D11EE0B9F5881F25D006DCB9F5803FBA
:100C900020D0B9F5801F37D11AE0B9F5001F18D060
:100CA000B9F5041F30D117E0D1F80CC02DE0D1F810
:100CB0000C8008F1040C28E0D1F80C8008F1080C35
:100CC00023E0D1F80C8008F10C0C1EE000BF00BF3F
:100CD00000BF00BF00BF00BFD1F80880B8F1000F0F
:100CE00002D14FF0040C0BE0D1F80880B8F1010FED
:100CF00003D14FF0080C1C6102E04FF0080C5C615E
:100D000003E04FF0000C00E000BF00BFFF2801D857
:100D1000984601E003F104084646FF2802D84FEA4E
:100D2000820803E0A2F108084FEA88084746D6F88F
:100D300000804FF00F0909FA07F928EA09080CFAB0
:100D400007F900E088E048EA0908C6F80080D1F811
:100D5000048008F08058B8F1805F7DD100BFDFF8D3
:100D6000C081D8F8188048F00108DFF8B491C9F8BC
:100D70001880C846D8F8188008F00108CDF800801F
:100D800000BF00BF4FEAB9384FEA920958F829501E
:100D90004FEA82784FEA18794FF00F0808FA09F8FD
:100DA00025EA0805DFF87C81434502D14FF00008B1
:100DB00016E0DFF87481434502D14FF001080FE0DF
:100DC000DFF86881434502D14FF0020808E0DFF800
:100DD0006081434502D14FF0030801E04FF0040861
:100DE0004FEA82794FEA197908FA09F848EA0505C5
:100DF000DFF840814FEA920948F82950D1F8048081
:100E000008F48038B8F5803F0AD1DFF82C81D8F893
:100E1000008048EA0008DFF82091C9F8008009E066
:100E2000DFF81481D8F8008028EA0008DFF808917C
:100E3000C9F80080D1F8048008F40038B8F5003F04
:100E400010D1DFF8F48008F10408D8F8008048EAEF
:100E50000008DFF8E49000E05AE009F10409C9F85D
:100E600000800DE0DFF8D08008F10408D8F8008099
:100E700028EA0008DFF8C09009F10409C9F80080E9
:100E8000D1F8048008F48018B8F5801F0ED1DFF87F
:100E9000A88008F10808D8F8008048EA0008DFF8C0
:100EA000989009F10809C9F800800DE0DFF8888002
:100EB00008F10808D8F8008028EA0008DFF87890E0
:100EC00009F10809C9F80080D1F8048008F4001875
:100ED000B8F5001F0ED1DFF8608008F10C08D8F8D3
:100EE000008048EA0008DFF8509009F10C09C9F8C1
:100EF00000800DE0DFF8408008F10C08D8F8008091
:100F000028EA0008DFF8309009F10C09C9F80080E0
:100F1000521C102AFFF48EAEBDE8F88700001110B5
:100F20000010024000080140000C01400010014088
:100F3000001401400800014000040140014800681D
:100F4000704700000000002003480068034909784A
:100F50000844014908607047000000200800002094
:100F600010B50848006840F01000064908600320EA
:100F700000F0D0F8002000F007F800F02BF8002077
:100F800010BD00000020024070B504460E480078F5
:100F90004FF47A71B1FBF0F00C490968B1FBF0F540
:100FA000284600F042FC08B1012070BD102C07D289
:100FB00000222146501E00F06EF80548046001E052
:100FC0000120F2E70020F0E708000020C400002024
:100FD0000400002008B500BF1F48806940F00100F0
:100FE0001D4988610846806900F00100009000BF3B
:100FF00000BF032000F08EF8002211466FF00B00B6
:1010000000F049F8002211466FF00A0000F043F8A2
:10101000002211466FF0090000F03DF80022114651
:10102000501F00F038F800221146101F00F033F86E
:1010300000221146901E00F02EF800221146501E8C
:1010400000F029F800BF0549486820F0E06040F052
:101050000070486000BF08BD001002400000014061
:1010600000BF00F01F0201219140034A430942F8EA
:10107000231000BF7047000080E100E000BF00F0D7
:101080001F02012191404209920002F1E022C2F8C0
:10109000001100BF70472DE9F05F80460D461646EF
:1010A000002701F035FA074639462A46334601F053
:1010B0000700C0F1070ABAF1040F02D94FF0040A81
:1010C00001E0C0F1070AD14600F1040ABAF1070FA6
:1010D00002D24FF0000A01E0A0F1030AD4464FF01B
:1010E000010A0AFA09FAAAF1010A0AEA020A0AFA44
:1010F0000CFA4FF0010B0BFA0CFBABF1010B0BEAF6
:10110000030B4AEA0B042146404601F009FABDE808
:10111000F09F000000BF00F00702064B19684FF671
:10112000FF031940044B0B4343EA0221014B1960B2
:1011300000BF70470CED00E00000FA0570B50446F2
:101140000D4600266248006800F00700A8420ED253
:101150005F48006820F0070028435D4908600846A2
:10116000006800F00700A84201D0012070BD20787F
:1011700000F00200022807D15648406820F0F00035
:10118000A168084353494860207800F00100002816
:101190005DD06068012806D14E48006800F4003038
:1011A00090B90120E2E76068022806D1494800684A
:1011B00000F0007040B90120D8E74648006800F010
:1011C000020008B90120D1E74248406820F003003E
:1011D000616808433F494860FFF7B0FE0646606813
:1011E000012810D108E0FFF7A9FE801B41F28831E9
:1011F000884201D90320B9E73648406800F00C0066
:101200000428F0D123E06068022810D108E0FFF73D
:1012100095FE801B41F28831884201D90320A5E761
:101220002C48406800F00C000828F0D10FE008E0DE
:10123000FFF784FE801B41F28831884201D90320E8
:1012400094E72448406800F00C000028F0D12048C2
:10125000006800F00700A8420ED91D48006820F081
:10126000070028431A4908600846006800F0070094
:10127000A84201D0012079E7207800F0040004287A
:1012800007D11448406820F4E060E1680843114940
:101290004860207800F00800082808D10D48406810
:1012A00020F46050216940EAC1000A49486000F01A
:1012B0003DF808494968C1F30311074A515CC84029
:1012C000064908600020FFF75FFE00204EE700009F
:1012D000002002400010024014400008C40000201A
:1012E0000148006870470000C400002000B5FFF707
:1012F000F7FF04494968C1F30221034A515CC84021
:1013000000BD0000001002402440000800B5FFF7B7
:10131000E7FF04494968C1F3C221034A515CC84050
:1013200000BD00000010024024400008F0B585B068
:101330000FF26C0C9CE8E01001A8A0E8E0101CA5DE
:101340002D68009500210022002300240020194D63
:10135000696801F00C05F5B1042D02D0082D19D1F2
:1013600001E0154819E001ADC1F38346AC5D01F41D
:10137000803555B10F4D6D68C5F340451DF805200A
:101380000D4D6543B5FBF2F302E00C4D04FB05F394
:10139000184602E000BF084800BF00BF05B0F0BD1E
:1013A00002030405060708090A0B0C0D0E0F1010A6
:1013B000010200000010024000127A0000093D0006
:1013C000F8B504460025207800F00100002878D008
:1013D000F848406800F00C0004280CD0F54840683C
:1013E00000F00C00082811D1F248406800F4803069
:1013F000B0F5803F0AD1EF48006800F400300028C3
:101400005FD0606800285CD10120F8BD00BF606833
:10141000B0F5803F06D1E748006840F48030E549E8
:10142000086028E0606858B9E248006820F480301D
:10143000E04908600846006820F4802008601AE04F
:101440006068B0F5A02F0BD1DA48006840F4802026
:10145000D84908600846006840F4803008600AE017
:10146000D448006820F48030D249086008460068FB
:1014700020F48020086000BF606888B1FFF75EFD3F
:10148000054606E0FFF75AFD401B642801D90320FA
:10149000BBE7C848006800F400300028F2D010E034
:1014A000FFF74CFD054606E0FFF748FD401B6428AA
:1014B00001D90320A9E7BF48006800F400300028E4
:1014C000F2D1207800F00200022857D1B9484068D4
:1014D00000F00C0050B1B748406800F00C0008283C
:1014E00018D1B448406800F4803098B9B148006819
:1014F00000F0020020B12069012801D0012084E71A
:10150000AC48006820F0F800616940EAC100A949D0
:10151000086033E02069E8B10120A7490860FFF7BF
:101520000DFD054606E0FFF709FD401B022801D925
:1015300003206AE79F48006800F002000028F2D00C
:101540009C48006820F0F800616940EAC1009949B0
:10155000086013E0002098490860FFF7EFFC05469B
:1015600006E0FFF7EBFC401B022801D903204CE703
:101570009048006800F002000028F2D1207800F0C6
:10158000080008282DD1A069B8B101208B49086056
:10159000FFF7D4FC054606E0FFF7D0FC401B02280D
:1015A00001D9032031E78348406A00F00200002897
:1015B000F2D0012000F0CAFF13E000207F4908604C
:1015C000FFF7BCFC054606E0FFF7B8FC401B02280D
:1015D00001D9032019E77748406A00F0020000288B
:1015E000F2D1207800F00400042873D1002671485D
:1015F000C06900F0805070B900BF6E48C06940F00B
:1016000080506C49C8610846C06900F08050009065
:1016100000BF00BF01266A48006800F48070B0B9BE
:101620006748006840F4807065490860FFF786FCF1
:10163000054606E0FFF782FC401B642801D9032021
:10164000E3E65F48006800F480700028F2D000BF35
:10165000E068012806D15748006A40F0010055496A
:10166000086227E0E06858B95248006A20F001009B
:10167000504908620846006A20F00400086219E038
:10168000E06805280BD14B48006A40F00400494946
:1016900008620846006A40F0010008620AE0454816
:1016A000006A20F00100434908620846006A20F001
:1016B0000400086200BFE068A0B1FFF73FFC0546E8
:1016C00009E0FFF73BFC401B41F28831884202D918
:1016D00003209AE622E03748006A00F00200002862
:1016E000EFD012E0FFF72AFC054608E0FFF726FCE2
:1016F000401B41F28831884201D9032085E62D48FC
:10170000006A00F002000028F0D1012E05D129481E
:10171000C06920F080502749C86100BFE069C8B3A4
:101720002448406800F00C00082860D0E0690228D6
:1017300048D1002020490866FFF700FC054606E076
:10174000FFF7FCFB401B022801D903205DE6194886
:10175000006800F000700028F2D1206AB0F5803FE8
:1017600007D11448406820F40030A16808431149AB
:101770004860D4E9080108430E49496821F474110E
:1017800008430C49486001200B490866FFF7D6FB67
:10179000054607E02DE0FFF7D1FB401B022801D9E9
:1017A000032032E60348006800F000700028F2D001
:1017B0001FE000000010024000004242800442424C
:1017C0000070004000200C490866FFF7B7FB054693
:1017D00006E0FFF7B3FB401B022801D9032014E603
:1017E0000648006800F000700028F2D101E00120F6
:1017F0000BE6002009E60000000042420010024013
:10180000042808D14FF0E021096941F004014FF0AC
:10181000E022116107E04FF0E021096921F00401A5
:101820004FF0E02211617047704770B504462546BD
:10183000681EB0F1807F01D301200FE0681E4FF0D9
:10184000E02148610F214FF0FF3000F069FE0020D9
:101850004FF0E021886107200861002070BD10B5BD
:10186000FFF7E2FF10BD70472DE9F04704462068FE
:1018700005682068C668206847694FF00008C146BF
:1018800005F00F08B8F1000F0AD105F0200038B1BB
:1018900006F0200020B1204601F004F8BDE8F087F2
:1018A000B8F1000F6DD007F0010018B906F4907080
:1018B000002866D005F0010030B106F4807018B140
:1018C000E06B40F00100E06305F0040030B107F088
:1018D000010018B1E06B40F00200E06305F0020087
:1018E00030B107F0010018B1E06B40F00400E06394
:1018F00005F0080030B107F0010018B1E06B40F0CE
:101900000800E063E06B68B305F0200028B106F042
:10191000200010B1204600F0C5FF20684069C0F3E8
:101920008019E06B00F0080010B9B9F1000F22D067
:10193000204600F08DFF2068406900F04000B0B103
:101940002068406920F0400021684861606B50B118
:101950001748616B4863606BFEF7BCFE10B1606BAB
:10196000416B88470CE02046FFF77DFF08E02046EA
:10197000FFF779FF04E02046FFF775FF0020E063E2
:101980008CE705F0800030B106F0800018B12046E9
:1019900001F0C0F882E705F0400030B106F04000E9
:1019A00018B1204600F064FF78E700BF76E700003A
:1019B0005527000810B504460CB9012010BDA069D8
:1019C00000B100E000BF94F8390028B9002084F885
:1019D0003800204600F05AF8242084F839002068A6
:1019E000C06820F400502168C860204600F0AEFFB7
:1019F0002068006920F490402168086120684069EF
:101A000020F02A00216848612068C06840F4005036
:101A10002168C8600020E063202084F8390084F841
:101A20003A000020CAE7000010B5044613492068B8
:101A3000884214D11248806920F48040104988619E
:101A40004FF4C0610F48FFF74FF8606BFEF79AFE46
:101A5000206BFEF797FE2520FFF702FB0DE00A49F9
:101A60002068884209D10648C06920F40030044942
:101A7000C8610C210348FFF737F810BD003801405A
:101A800000100240000801400044004010B586B03C
:101A900004464349206888425BD100BF41488069C1
:101AA00040F480403F4988610846806900F48040E6
:101AB000019000BF00BF4815029002200390032050
:101AC000059002A93848FFF7ABF84FF48060029008
:101AD00000200390049002A93348FFF7A1F833488F
:101AE000334908600020486000213148816080212E
:101AF000C1604900016189004161202181610021AB
:101B0000C161FEF73DFF18B18A212AA001F076F8E5
:101B100000BF27486063446200BF24481438294945
:101B20000860102048600021264881608021C16043
:101B30000021016141618161C161FEF721FF18B19E
:101B40009A211CA001F05AF800BF1E48206344628D
:101B500024E01D492068884220D100BF1148C06997
:101B600040F400300F49C8610846C06900F40030F5
:101B7000019000BF00BF04200290022003900320C8
:101B8000059002A90848FFF74BF8082002900020B2
:101B90000390049002A90448FFF742F806B010BD74
:101BA0000038014000100240000801405800024087
:101BB000540200202E2E2F5372632F75736172749E
:101BC0002E630000980200200044004077B581B0E9
:101BD0000446154694F83A00202850D1029800B1E6
:101BE00015B9012004B070BD00BF94F83800012879
:101BF00001D10220F6E7012084F8380000BF0298E6
:101C0000A062A5850020E063222084F83A001D48E8
:101C1000616B88621C48616BC8621C48616B086319
:101C20000020616B486302AE32682368191D2B46A1
:101C3000606BFEF7DDFE00BF0020009020680068AA
:101C4000009020684068009000BF00BF00BF0020E7
:101C500084F8380000BF2068C06840F480702168B4
:101C6000C8602068406940F0010021684861206830
:101C7000406940F04000216848610020B2E702203E
:101C8000B0E70000B9270008FF270008692700080F
:101C9000704770472DE9F84304460D4616461F4627
:101CA0004FF0000994F8390020285CD105B116B92D
:101CB0000120BDE8F88300BF94F83800012801D165
:101CC0000220F6E7012084F8380000BF0020E0631E
:101CD000212084F83900FFF731F98146A684E68493
:101CE0002BE0E08C401EE084A068B0F5805F16D148
:101CF0004B46002280212046009700F03FFF08B1AC
:101D00000320D6E7A846B8F80000C0F30800216811
:101D10004860206908B9AD1C0FE06D1C0DE04B4612
:101D2000002280212046009700F028FF08B1032000
:101D3000BFE715F8010B21684860E08C0028D0D17E
:101D40004B46002240212046009700F017FF08B1C3
:101D50000320AEE7202084F8390000BF002084F87B
:101D6000380000BFA5E70220A3E70000F7B504464E
:101D7000154694F8390020283DD1019800B10DB9DD
:101D80000120FEBD00BF94F83800012801D10220D7
:101D9000F7E7012084F8380000BF01982062A5848D
:101DA000E5840020E063212084F839001348216B8A
:101DB00088621348216BC8621248216B08630020B7
:101DC000216B486301AE23681A1D31682B46206BD6
:101DD000FEF70EFE6FF040002168086000BF002093
:101DE00084F8380000BF2068406940F08000216816
:101DF00048610020C5E70220C3E700000D28000865
:101E0000432800086927000810B504460F492068D8
:101E10000968884219D100210D4890F80E0380F01E
:101E200001020C488154FFF789F80949C1F81003F1
:101E3000012081F81403084690F80E130548405C11
:101E400018B10120024981F8150310BD14000020CB
:101E5000DC020020E80500207047000010B50248B1
:101E6000FFF7E2FD10BD0000D401002070B501F0C5
:101E700079FF04460025A4B100F01CF8054685B1A1
:101E80002946094802F018F80546074907A000F05E
:101E9000B7FE0748006820B129460348044A126883
:101EA0009047204670BD0000D4000020257300003C
:101EB0000C00002010B501F00FFF10BD70B50446F6
:101EC0000D46214605A000F09BFE2946204602F063
:101ED00025F82946204602F06BF870BD0D0A2D3E0C
:101EE0003A25730000BFFEE710B500B910BD0160D0
:101EF00042600372012484744FF4FA64848205A45E
:101F0000C4600524047400244474C824C47400BF4D
:101F1000ECE700000000000008B500BF0E48406973
:101F200040F001000C4948610846406900F001009A
:101F3000009000BF00BF002201210E20FFF7ABF888
:101F40000E20FFF79BF8002201210F20FFF7A3F8D6
:101F50000F20FFF793F808BD0010024008B500BF3E
:101F60001348806940F01000114988610846806973
:101F700000F01000009000BF00BF00BF084680695D
:101F800040F0200088610846806900F02000009041
:101F900000BF00BF00BF0846806940F004008861B0
:101FA0000846806900F00400009000BF00BF08BD33
:101FB0000010024010B5002211462520FFF76BF8F3
:101FC0002520FFF75BF810BD10B50C480C490860E0
:101FD0004FF416504860002109488160C1600161DA
:101FE0000C21416100218161C161FFF7E3FC18B15F
:101FF0004C2104A000F002FE10BD0000003801409A
:10200000D40100202E2E2F5372632F7573617274CA
:102010002E63000010B50C480C4908604FF4E13005
:102020004860002109488160C16001610C21416163
:1020300000218161C161FFF7BDFC18B15F2104A0DF
:1020400000F0DCFD10BD0000004400401402002040
:102050002E2E2F5372632F75736172742E630000DE
:1020600000BFFEE72DE9F041054600242846FEF7B3
:10207000A9F81FFA80F800BF30E0285D302806DD9F
:10208000285D392803DA285D3038C7B214E0285DAE
:10209000612806DD285D662803DA285D5738C7B257
:1020A0000AE0285D412806DD285D462803DA285D20
:1020B0003738C7B200E00027204604EBD071491042
:1020C000A4EB410109B93E4606E03007060EF019BF
:1020D000C6B244FA04F02E54601C84B24445CCDBF2
:1020E000002005EB640108706010BDE8F08100007D
:1020F0002DE9F04786B004460D46904614B906B067
:10210000BDE8F087B8F1000F06D1C1490878C1A237
:102110000121A3689847F2E7BD480078012856D10D
:10212000BB484068BC49085C0D2819D00CDC03286A
:1021300015D004DC012810D0022847D10EE0042875
:102140003BD00C2842D11EE00E2838D00F2835D0C5
:10215000112831D0172839D132E037E036E035E0A8
:102160000F22AE482968FDF7EDFF0021AB4810387B
:10217000C1772868FEF726F806462A68314602200D
:10218000A368984722E03A212868FEF711F806462E
:102190008EB1761C0F223146A0481030FDF7D2FFD9
:1021A00000219E48103880F82F1000F120020F21E6
:1021B0000320A368984709E008E007E006E005E08F
:1021C00097A201210846A368984700BF1DE19048E7
:1021D0000078072868D18E4840688F49085C092834
:1021E0001ED004DC072807D008285CD10EE00A289E
:1021F00027D0172857D150E02868FDF7E3FF06469F
:102200002A6831460620A36898474CE02868FDF705
:10221000D9FF06462A6831460720A368984742E05E
:102220002C212868FDF7C4FF06464EB1761C3046C7
:10223000FDF7C8FF0746324639460820A36898478D
:1022400031E03A212868FDF7B3FF07464FF0000957
:1022500017B37F1C0A21384600F030F9C6B21C2E95
:1022600002D10FF2C0190DE0142E02D10FF2B819ED
:1022700008E0052E02D10FF2B41903E0082E01D1B7
:102280000FF2AC194846FDF79DFF82464A4651467B
:102290000920A368984700BF05E061A2012107203B
:1022A000A368984700BFB0E0594800780A2824D1B5
:1022B00057484068012889D13A212868FDF778FFFE
:1022C00007467F1C0A21384600F0F8F800F0FF09A5
:1022D0008F2000EB49004FFA80FA534655A20A219D
:1022E000286800F09DFCC6B20020296888552A683D
:1022F00031460A20A368984787E0454800780B28B4
:1023000021D1434840684C49085C132804D0142864
:1023100011D0172816D10FE04048103829680988D5
:1023200001863B484068012804D13DA201210B20D1
:10233000A368984706E005E039A201210B20A368B5
:10234000984700BF61E0324800780E281AD1304823
:1023500040683949085C0E2802D0172811D10AE0DC
:1023600000202E49103981F8300001212B48103807
:1023700080F8311005E02AA201210E20A3689847B9
:1023800000BF42E0224800780C280BD1204840686A
:102390002949085C0C2804D121A20121A36898478F
:1023A00000BF32E01A4800780D282DD11848406847
:1023B00001282AD100262F6817E0701C86B200275A
:1023C000062E00DB1EE0062E05D012A201210D20F4
:1023D000A368984793E6049F3846FFF743FE0646F6
:1023E0003A4631460D20A368984714A13846FDF7B8
:1023F000F1FE5DF82610884201D1012000E00020A6
:102400000028DAD100BF00E000BF00BF77E600007F
:102410007800002046000000D03F0008080A002095
:10242000530000003730300038303000383530008D
:102430003930300025640000E13F00082C00000026
:1024400010B504460348808A10B1A16888688047A7
:1024500010BD0000300A002070B505460E46144637
:10246000102D1FD2DFE805F01E0813141516171ED5
:102470001E1E18191A1B1C1D21460CA000F0C0FBC3
:102480002078532802D102200B4908700BE00AE0A3
:1024900000BF00BF00BF00BF00BF00BF00BF00BF44
:1024A00000BF00E000BF00BF002070BD0D0A494E14
:1024B00049543A25730000000900002070B5054614
:1024C0000C46224600212846FDF7A6FE70BD0000FE
:1024D00070B504460D46002604B105B970BD284606
:1024E00001F0EEF8064631466068426805489047BC
:1024F000A88A20B1044A908AA2685168884700BF20
:10250000ECE70000F4050020300A002070470000CE
:1025100002480068C0F30220704700000CED00E0A4
:1025200010B5002807DA0A07140E054A00F00F0359
:102530001B1FD45403E00A07130E024A135410BDA4
:1025400018ED00E000E400E07047000008B508491D
:102550000968C9084FF47A72B1FBF2F14143009166
:1025600000BF00BF00994A1E00920029F9D108BDA2
:10257000C400002010B540F202210248FDF7FBFD27
:1025800010BD0000F60700200020024908704860D6
:102590007047000078000020704710B504460CB961
:1025A000002010BD2068406908B90020F9E72068C4
:1025B000416920468847F4E710B5FEF7C5FCFFF7F0
:1025C0004EF910BD10B590B00120069000040790A0
:1025D0000020089001200A9002200D90C1030E9166
:1025E0004FF4E0110F9106A8FEF7EAFE18B1F121B1
:1025F00014A000F003FB0F200190022002900020A5
:1026000003904FF48060049000200590022101A8FF
:10261000FEF794FD18B1FF210AA000F0EFFAFEF7D3
:102620005FFE4FF47A71B0FBF1F42046FFF7FDF83E
:102630000420FFF7E5F800221146501EFEF72BFD9F
:1026400010B010BD2E2E2F5372632F6D61696E2E48
:10265000630000001148006840F001000F49086065
:10266000084640680E4908400C4948600846006822
:102670000C490840094908600846006820F4802099
:1026800008600846406820F4FE0048604FF41F00D0
:102690008860C803044908607047000000100240C9
:1026A0000000FFF8FFFFF6FE08ED00E070B51648E9
:1026B000007838B3FEF742FC0446144800688442B0
:1026C00003D312480068201A03E0601E0F4909680E
:1026D000401A05460E480068A84207D90C48006811
:1026E000401B0B490860094804600AE000200849C3
:1026F0000860054908700748006810B1054800687F
:10270000804700BF70BD0000C0000020B80000205E
:10271000BC000020B40000200149086070470000A0
:10272000B400002010B50446FEF708FC0349086019
:102730000348046001200349087010BDB800002060
:10274000BC000020C0000020002001490870704734
:10275000C000002070B505466C6A0020E085E0846A
:102760002046FFF780F870BD70B506460025746AF4
:1027700020684069C0F3C01594F83900212805D1BC
:1027800025B10020E084204600F082F820684069EE
:10279000C0F3801594F83A00222805D125B1002015
:1027A000E085204600F054F8E06B40F01000E06354
:1027B0002046FFF758F870BD70B505466C6A28686A
:1027C000006800F02000B0B90020E0852068C068F3
:1027D00020F480702168C8602068406920F0010002
:1027E000216848612068406920F040002168486104
:1027F000202084F83A002046FFF74AFA70BD70B5F1
:102800000446656A2846FFF744FA70BD70B5054670
:102810006C6A2868006800F0200070B90020E0842D
:102820002068406920F08000216848612068C06805
:1028300040F040002168C86002E02046FFF7E4FA5B
:1028400070BD70B50446656A2846FFF705FB70BD8C
:102850000168C96821F490710268D1600168496912
:1028600021F0010102685161202180F83A1070477F
:1028700010B504462068C06820F040002168C86098
:10288000202084F839002046FFF7BEFA002010BD52
:102890000168C96821F0C0010268D160202180F878
:1028A0003910704770B5044694F83A0022284AD18E
:1028B000A068B0F5805F13D1A56A206940B920688F
:1028C0004068C0F308002880A06A801CA06219E05C
:1028D00020684068C0B22880A06A401CA06211E055
:1028E000206938B920684068C1B2A26A501CA06251
:1028F000117007E02068406800F07F01A26A501C58
:10290000A0621170E08D401E80B2E085C8B92068D9
:10291000C06820F020002168C8602068C06820F4EA
:1029200080702168C8602068406920F0010021683B
:102930004861202084F83A002046FFF7A9F90020DA
:1029400070BD0020FCE70220FAE700002DE9F0410D
:10295000044600252068006920F44050E1680843DF
:10296000216808612169A06808436169084305433B
:102970002068C06841F20C61884328432168C86020
:102980002068406920F44070A169084321684861CB
:102990005F49206888425CD1FEF7B8FC00EBC001BB
:1029A00001EB001061688900B0FBF1F6FEF7AEFCA8
:1029B00000EBC00101EB001061688900B0FBF1F091
:1029C0006421B0FBF1F000EBC00101EB0010A6EBBD
:1029D0008000322101EB00106421B0FBF1F000F027
:1029E000F006FEF793FC00EBC00101EB00106168FC
:1029F0008900B0FBF1F06421B0FBF1F006EB0016AA
:102A0000FEF784FC00EBC00101EB00106168890057
:102A1000B0FBF1F7FEF77AFC00EBC00101EB001010
:102A200061688900B0FBF1F06421B0FBF1F000EBCC
:102A3000C00101EB0010A7EB8000322101EB001078
:102A40006421B0FBF1F000F00F0030442168886091
:102A50005BE0FEF74BFC00EBC00101EB001061688E
:102A60008900B0FBF1F6FEF741FC00EBC00101EB81
:102A7000001061688900B0FBF1F06421B0FBF1F057
:102A800000EBC00101EB0010A6EB8000322101EB4E
:102A900000106421B0FBF1F000F0F006FEF726FC18
:102AA00000EBC00101EB001061688900B0FBF1F0A0
:102AB0006421B0FBF1F006EB0016FEF717FC00EB0B
:102AC000C00101EB001061688900B0FBF1F7FEF76F
:102AD0000DFC00EBC00101EB001061688900B0FB48
:102AE000F1F06421B0FBF1F000EBC00101EB00104C
:102AF000A7EB8000322101EB00106421B0FBF1F064
:102B000000F00F00304421688860BDE8F0810000CB
:102B100000380140014691F8390021282CD18868FD
:102B2000B0F5805F0FD10A6A1088C0F308000B6807
:102B30005860086918B9086A801C086209E0086AC8
:102B4000401C086205E00B6A581C086218780B6884
:102B50005860C88C401E80B2C88458B90868C068E4
:102B600020F080000B68D8600868C06840F0400022
:102B70000B68D860002070470220FCE72DE9F04187
:102B800004460D4617469846069E21E0701CF8B193
:102B90002EB1FEF7D3F9A0EB0800B04218D9206897
:102BA000C06820F4D0702168C8602068406920F0B7
:102BB000010021684861202084F8390084F83A0037
:102BC00000BF002084F8380000BF0320BDE8F0817A
:102BD000206800682840A84201D1012000E00020C0
:102BE000B842D3D00020F1E710B50248FEF73CFE12
:102BF00010BD0000D401002000BFFEE700BFFEE7CB
:102C00000FB4054B10B503A9044A029800F044F82C
:102C100010BC5DF814FB00006D370008CC000020EC
:102C20000FB41CB50A46521ECDE9000207A9054B98
:102C30006A46069800F030F8009A002111701CBC1A
:102C40005DF814FBFB3000080FB4084B10B504A965
:102C500002AA039800F020F8044602A9002000F020
:102C600057FA204610BC5DF814FB00001131000833
:102C700000487047D000002002E008C8121F08C1B9
:102C8000002AFAD170477047002001E001C1121FED
:102C9000002AFBD1704700002DE9FF4F8DB00F4691
:102CA0000546002606E025280BD0DDE90F129047E7
:102CB0006D1C761C28780028F5D111B03046BDE88F
:102CC000F08F0024A246A1460122EC4900E0044313
:102CD00015F8013F203B02FA03F00842F7D12878AB
:102CE0002A2810D06FF02F022878A0F1300109298E
:102CF00014D80AEB8A0102EB410144F0020400EB14
:102D0000010A6D1CF0E701CF5FEA000A03D544F425
:102D10000054CAF1000A44F002046D1C28782E28E1
:102D200017D115F8010F44F004042A280ED06FF0D3
:102D30002F022878A0F1300109290AD809EB89016E
:102D400002EB410100EB01096D1CF2E757F8049B0F
:102D50006D1C28786C280FD006DC4C2817D068280A
:102D60000DD06A2814D104E0742810D07A280FD12D
:102D70000DE044F400140AE044F4801401E044F44B
:102D800040146978814202D104F580146D1C6D1CD9
:102D90002A786E2A1FD00CDC632A31D004DC002A8A
:102DA0008BD0582A11D1A3E0642A68D0692A0CD1AB
:102DB00065E0732A2ED004DC6F2A73D0702A04D108
:102DC0009BE0752A6FD0782A6ED01046DDE90F128D
:102DD0009047761C50E1C4F30250022806D0032825
:102DE00009D0042801CF09D0066045E101CFF117D1
:102DF000C0E9006140E101CF06803DE106703BE1A2
:102E000017F8040B8DF8000000208DF80100EB4648
:102E1000012003E057F804BB4FF0FF3061074FF08B
:102E2000000102D40DE008F10101884649450FDA9E
:102E30008045F8DB1BF808100029F4D108E008F100
:102E4000010188468142FADB1BF808100029F6D1FF
:102E5000DDE90F23AAEB08008146214600F036F990
:102E6000304400EB080604E0DDE90F121BF8010B0B
:102E70009047B8F10108F7D221464846F7E00A2109
:102E8000C4F302534FF0000B0891022B04D001CF82
:102E9000C117032B09D00AE0FF1D27F00707F7E849
:102EA000020108E032E01FE020E000B2C117042B6D
:102EB00001D140B2C117031E71F1000307DA4FF0D0
:102EC000000CD0EB0C006CEB01012D2302E023057C
:102ED00004D52B238DF82430012303E0E30701D030
:102EE0002023F7E7984658E00A2110E010210EE071
:102EF00010204FF0000B08900CE010214FF0000B59
:102F000044F004044FF00809089103E008214FF051
:102F1000000B0891C4F30253022B04D001CF00210F
:102F2000032B06D006E0FF1D27F00707F7E8020194
:102F300003E080B2042B00D1C0B24FF00008230799
:102F40002BD5702A07D0DDF820C08CF0100C5CEA7D
:102F50000B0C05D00EE040238DF82430012308E04F
:102F600050EA010306D030238DF824308DF8252057
:102F700002239846DDF820C08CF0080C5CEA0B0CAC
:102F80000BD150EA010301D1630706D530238DF838
:102F900024304FF00108A9F10109582A04D038A2C1
:102FA0000B9208AA0A920BE03AA2F9E75B46089A4C
:102FB000FDF76BF90B9B9B5C0A9A521E0A921370E9
:102FC00050EA0102F2D10A98ADEB000000F1200BAB
:102FD000600702D524F4803401E04FF00109D9459F
:102FE00002DDA9EB0B0000E0002000EB0B014144E7
:102FF0000890AAEB010AE00306D4DDE90F2321467D
:10300000504600F063F806444FF0000908E009A9B3
:1030100011F80900DDE90F12904709F10109761C4A
:10302000C145F4DBE0030CD5DDE90F232146504612
:1030300000F04CF8064404E0DDE90F123020904720
:10304000761C0899481E08900029F5DC08E00A98CB
:103050000A990078491C0A91DDE90F129047761C05
:10306000BBF10001ABF1010BF1DC21465046DDE97B
:103070000F2300F019F806446D1C1BE60928010017
:1030800030313233343536373839616263646566DE
:1030900000000000303132333435363738394142A0
:1030A00043444546000000002DE9F0410446002558
:1030B0001E461746880404D405E039462020B04750
:1030C0006D1C641EF9D52846BDE8F0812DE9F0415C
:1030D000044600251E469046C80301D5302700E06F
:1030E0002027880404D505E041463846B0476D1CCA
:1030F000641EF9D52846BDE8F0814A68002A06D04A
:103100000A68531C0B6010704868401E4860704786
:103110000A68531C0B601070704700002DE9F047DF
:1031200006460C4615464FF000090027B846A01B7E
:10313000022800DBA41E16A12046FDF727F8070091
:1031400024D0A74204D112A1A01CFDF71FF8074606
:103150004FB9A01BC0B22880288810B10120BDE85B
:10316000F0870020FBE7BF1C381B00F0FF08288811
:1031700040450BDB2888A0EB08002880288810B980
:103180004FF0010902E0B44200D146444846E6E768
:103190000D0A00002DE9F0438FB0064677684FF026
:1031A00000085248007800F00100002848D0DFF8FD
:1031B00040910025484600F0F5F90446002C1EDB3E
:1031C000012C1CDC4B48C07C00B102D13846FFF713
:1031D00037F906E0681CC5B24FF000090F2D00DB7F
:1031E00007E045A14846FCF7F5FF4DF8250000280B
:1031F000F0D100BF1DB900200FB0BDE8F083012C55
:103200000CD1012269463046FEF772FF012130469B
:1032100000F076F88046FFF7ADF90AE04CB9354882
:10322000C07C20B90021304600F06AF88046FFF7E4
:10323000A1F92E48008880F001002C49088000BFC9
:103240002A48007800F0020060B1FFF793F90021EE
:10325000304600F055F880462448008880F002008F
:10326000224908802148007800F0040050B130461F
:1032700000F07AFC012805D11C48008880F0040089
:103280001A4908801948007800F0080050B130460B
:1032900000F06AFC012805D11448008880F008007D
:1032A000124908801148007800F0100050B1134A0C
:1032B00001210A20B36898470C48008880F010006C
:1032C0000A490880B8F1000F0ED0FDF7BDF820B113
:1032D00008493846FFF7FCF806E001220021304695
:1032E000FEF706FFFFF750F9012085E78000002078
:1032F000F6070020300A00200D0A0000F90900201E
:103300002DE9F04104460D460027666845B11B488B
:10331000807C012801D101272CE0FFF735F929E055
:103320001648807C012821D11448407C401C134958
:1033300048740846407C097C88420FDA1048B0F88F
:103340000012706842680E4890470C48808A88B125
:103350000A4A908AB268516888470BE000221146F9
:103360002046FEF7C5FEFFF70FF903E00348807C17
:1033700000B901273846BDE8F0810000300A00207E
:10338000F40500202DE9F04780460E464FF0000975
:10339000002738A14046FCF7F9FE070014D03A2177
:1033A0003846FCF705FF044624B1641C2078303809
:1033B00032494870324639464046FFF7AFFE8146F3
:1033C000102000F09BF817E02DA14046FCF7DEFE30
:1033D000070011D03A213846FCF7EAFE044624B132
:1033E000641C2078303825490870324639464046FA
:1033F000FFF794FE814600BF23A14046FCF7C6FEBE
:10340000070025D03A213846FCF7D2FE04463CB1ED
:10341000641C0A212046FFF751F8184981F8320050
:103420002C212046FCF7C4FE05463DB1641C0A2150
:103430002846FFF743F881B2104881863246394664
:103440004046FFF76BFE8146042000F057F80EE07F
:103450000FA14046FCF79AFE070008D032463946D5
:103460004046FFF75BFE8146082000F047F84846DB
:10347000BDE8F0872B43455245470000F80900207E
:103480002B4353434F4E00002B4E534F4E4D49009C
:103490002B4E4E4D4900000013B50446BDF8040004
:1034A00000B91CBD01A92046FFF76CFF10BBBDF899
:1034B000040000B9F5E71048B0F80002BDF80410A8
:1034C0000844B0F5007F12DA0B49B1F800120A4A3D
:1034D0008818BDF804202146FCF734FE0648B0F8F1
:1034E0000002BDF8041008440349A1F800020120BD
:1034F00000F004F800BFD4E7F6070020024909886D
:103500000143014A118070478000002010B502205D
:10351000FFF7F4FF10BD10B504460CB9002010BD34
:103520002068006A08B90020F9E72068016A20468F
:103530008847F4E770B5044665681148007808B11B
:10354000002070BD0F4890F83000302804DB0D4893
:1035500090F83000362801DD0020F2E702230AA2AD
:103560000E4801680E48FEF7BFFC0E2004490870A3
:10357000012048600A492846FEF7AAFF0120E0E73B
:1035800078000020F8090020444752414D2C313783
:103590002C31303030302C31000000006C00002025
:1035A000300A002070B504464FF0FF351348C0685C
:1035B00068B913A12046FCF7E9FD08B101251BE01D
:1035C00010A12046FCF7E2FDB0B1002514E00CA1EB
:1035D0002046FCF7DBFD48B10848C1682046FCF7EF
:1035E000D5FD08B1012507E0002505E005A120462D
:1035F000FCF7CCFD00B10025284670BD300A002044
:103600004F4B00004552524F5200000010B5044687
:103610000CB9002010BD2068806908B90020F9E7C6
:103620002068816920468847F4E7000070B50446A9
:1036300065680E48007808B1002070BD02230CA216
:10364000104801681048FEF74FFC01200E4908742D
:10365000002088740B2005490870012048600A4941
:103660002846FEF735FF0120E7E70000780000203C
:10367000444752414D2C31372C31303030302C31D1
:103680000000000070000020300A00200B49B1F853
:10369000000100BF094931F81010091201B10AE018
:1036A000411C89B20846802900DB00200349B1F89B
:1036B00000118142EED100BF70470000DC02002003
:1036C00038B5044600250CB9284638BD4FF40071C2
:1036D0001D48FCF750FD00201B49A1F80002207A8C
:1036E00040B91AA24FF4007117482368FFF798FAFF
:1036F00085B223E0207A012807D116A241021248A0
:103700002368FFF78DFA85B218E0207A02280AD1E3
:103710006068009011A24FF400710B482368FFF716
:103720007FFA85B20AE0207A032807D10DA24FF470
:10373000007105482368FFF773FA85B20248A0F8C4
:1037400000522846C1E70000F405002025733D3FE4
:103750000D0A000025733F0D0A00000025733D256A
:10376000730D0A0025730D0A0000000013B50C4606
:103770004FF6FF73012269460248FEF78BFA009864
:103780001CBD00001402002010B504460CB9002036
:1037900010BD2068006908B90020F9E720680169B8
:1037A00020468847F4E710B504460CB9002010BD48
:1037B0002068806808B90020F9E720688168204601
:1037C0008847F4E770B5044665680E48007808B18C
:1037D000002070BD032300220B4801680B48FEF750
:1037E00083FB01200949087407200649087001205D
:1037F00048604FF47A70054988822846FEF768FED3
:103800000120E6E77800002020000020300A002098
:1038100010B504460CB9002010BD2068C06808B976
:103820000020F9E72068C16820468847F4E710B512
:1038300004460CB9002010BD2068406808B900207B
:10384000F9E72068416820468847F4E770B50446E8
:1038500065680C48007808B1002070BD0323002281
:10386000094801680948FEF73FFB01200549087037
:1038700048604FF4FA60054988822846FEF728FE22
:103880000120EAE77800002018000020300A00201C
:1038900070B5044665680E48007808B1002070BD18
:1038A000032300220B4801680B48FEF71DFB012093
:1038B00009490874042006490870012048604FF443
:1038C000FA60054988822846FEF702FE0120E6E7F5
:1038D0007800002048000020300A0020FDF740FB5F
:1038E000FEF770FEFEF73AFBFEF716FBFEF76CFBE9
:1038F000FEF790FBFEF75EFB454800F005F901205E
:103900004449087044A0FFF77BF97FE04048FFF787
:1039100041FCFEF7CBFE3F4800780C2874D2DFE86C
:1039200000F006075E111B252C3640544A686CE0F7
:1039300043A0FFF765F93648FFF779FF0C203549BA
:10394000087062E047A0FFF75BF93148FEF725FEFB
:103950000C203049087058E049A0FFF751F92C4875
:10396000FFF754FE0C202B4908704EE04DA0FFF7E6
:1039700047F90C202749087047E031A0FFF740F9CC
:103980002348FFF763FF0C20224908703DE050A058
:10399000FFF736F91E48FFF7BEFD0C201D490870E1
:1039A00033E027A0FFF72CF91948FFF74FFF0C2051
:1039B0001849087029E022A0FFF722F91448FFF700
:1039C00045FF0C20134908701FE01DA0FFF718F9F0
:1039D0000F48FFF73BFF0C200E49087015E044A08C
:1039E000FFF70EF90A48FFF7DEFE0C2009490870C0
:1039F0000BE013A0FFF704F90548FFF718FF0C20B0
:103A00000449087001E0FFE700BF00BF7EE7000047
:103A1000A8000020090000200A0D20554152542022
:103A20005072696E7466204578616D706C652074A3
:103A30006F2074686520554152540A0D0000000043
:103A40000D0A2042433935204D6F64756C6520693D
:103A50007320696E697469616C697A696E672E2E6C
:103A60002E0000000D0A2042433935204D6F647549
:103A70006C65207369676E2073746174653A000029
:103A80000D0A2042433935204D6F64756C65204323
:103A90007265617465205544502073657276657255
:103AA000000000000D0A2042433935204D6F647537
:103AB0006C652053656E64204D6573737361676533
:103AC00020746F2055445020536572766572000053
:103AD0000D0A2042433935204D6F64756C652063B3
:103AE0006C6F736520554450207365727665720063
:103AF0000D0A2042433935204D6F64756C6520698D
:103B00006E666F3A0000000010B504460CB9002044
:103B100010BD2068006808B90020F9E7034820605C
:103B200020680168204688470120F1E7EC3F000843
:103B300070B505466C68002008490880FEF724FD32
:103B4000FEF718FD21886068026805489047A06864
:103B5000016804488847012070BD000080000020F3
:103B6000993400080D3500082DE9FF4106467768B5
:103B70001648007818B1002004B0BDE8F081EC24AC
:103B800025461348808EA04201DA1148858E1048E0
:103B9000009590F832300FA20A2101A8FFF740F8F3
:103BA00084B2002001A90855022301AA0B4801682C
:103BB0000B48FEF799F90D20044908700120486070
:103BC00007493846FEF784FC0120D5E7780000203D
:103BD000F809002025642C2564000000580000200E
:103BE000300A00202DE9F04FF9B080460D4691468D
:103BF000D8F804B02848007818B1002079B0BDE8A2
:103C0000F08F264890F83000302804DB234890F8E5
:103C10003000362801DD0020F0E7EC260027710097
:103C200003A8FCF7A8FAB54201DD374600E0AFB2C1
:103C30001BA01DA1194B30331FA2CDE90107009134
:103C40004FF4EC7103A8FEF7EBFF1FFA80FA002493
:103C50000AE019F804200AEB440103ABC8181AA1C2
:103C6000FEF7F2FF601C84B2BC42F2DB022303AA1F
:103C7000174801681748FEF737F94FF4FA601549FD
:103C800088820C2004490870012048601149584678
:103C9000FEF71EFC0120B1E778000020F8090020A3
:103CA00035343333330000003139332E3131322E85
:103CB00035372E373000000025732C25732C2573E3
:103CC0002C25642C00000000253032580000000034
:103CD00074000020300A002000210B48B0F80001D9
:103CE000094A32F81000001260B9002008E0064AC4
:103CF00032F8102012120AB94A1C91B2421C90B23A
:103D00008028F4DB08467047DC02002070B50446CA
:103D10000D46FF22511C1048FCF726FA00200E49E0
:103D2000A1F80001A1F8020181F80401C1F808011D
:103D300081F80C030021084880F80D130020064983
:103D400081F80E0381F8140381F815030348046019
:103D500003480560084670BDDC020020100000200A
:103D6000140000202DE9F0410025A8465048B0F885
:103D700000014F4931F810000012002848D1FFF728
:103D800085FC06464A48B0F80201B0420FD04848C8
:103D9000A0F8026190F8040120B9FDF7CFF844497A
:103DA000C1F808010A20424981F804012CE040488A
:103DB00090F8040140B3FDF7C1F804463C4890F880
:103DC0000401A04204D83A4890F80401201A05E002
:103DD000374890F80401C0F1FF30204407463448CA
:103DE00090F80401B8420AD9314890F80401C01B88
:103DF0002F4981F804010846C0F8084103E000207B
:103E00002B4981F8040100BFFFF766FF054603E078
:103E10000020274981F80401702D02DB4FF00108D2
:103E200006E02DB1224890F8040108B94FF00208CD
:103E30001F4890F8140378B1FDF780F81C49D1F8B9
:103E40001013441A1A4890F80F03A04203D200201E
:103E5000174981F8140300BF154890F8150310B3F3
:103E6000134890F81403F0B90020114981F81503A4
:103E70001048006878B10A4692F80E3301F5437293
:103E8000D15C0B4A92F80E3302F5867202EB0320E6
:103E9000084A12689047064890F80E0380F0010027
:103EA000034981F80E0308F0FF00BDE8F08100002F
:103EB000DC0200201000002030B50246002026E081
:103EC000154BB3F80031144C34F813301B1203B106
:103ED0001FE0114BB3F800310F4C14F8133002F807
:103EE000013B4FF6FF73B4F800410B4D25F8143039
:103EF0002B46B3F800315B1C9BB22C46A4F8003172
:103F0000802B02DB0023A4F80031431C98B28842C6
:103F1000D6DB00BF30BD0000DC020020F0B5044657
:103F20000B462048805C1844B0F5807F01DD0020FE
:103F3000F0BD1D4890F80E231A48855C00210AE068
:103F4000675C1A4800EB022C28466E1CF5B20CF890
:103F50000070481C81B29942F2DB134890F80E03BE
:103F6000904213D0104890F80E230E48855C002133
:103F70000AE0675C0D4800EB022C28466E1CF5B287
:103F80000CF80070481C81B29942F2DB82F0010605
:103F90000448805D18B90120034E86F815030846D1
:103FA000C6E70000E8050020DC020020E80300204E
:103FB00070B504460D462A4621460448FDF7D6FE54
:103FC0003220FCF77DFDFDF751FF70BDD4010020CC
:103FD0000001030D0C040F0E050617000708090A5F
:103FE000170013170014170015170000313B0008C5
:103FF0004D380008C5370008113800088937000817
:10400000913800082D360008E53B000835350008DA
:1040100095310008000000000000000001020304C8
:1040200006070809000000000102030400404040A8
:10403000404040404040414141414140404040407B
:104040004040404040404040404040404005020227
:1040500002020202020202020202020202202020E6
:104060002020202020202002020202020202909042
:104070009090909010101010101010101010101040
:104080001010101010101010020202020202888894
:1040900088888888080808080808080808080808A0
:1040A0000808080808080808020202024000000088
:1040B0002D40000841542B4E42414E440000000068
:1040C00041542B434D45450041542B4E534F5246CE
:1040D0000000000041542B434552454700000000BA
:1040E00041542B4E434F4E464947000041542B4309
:1040F000474D490041542B43494D490041542B4EF3
:104100004E4D490041542B4E534D490041542B4EC6
:10411000534F434C0000000041542B43474D4D008A
:1041200041542B4353434F4E0000000041542B4356
:1041300047534E0041542B4346554E0041542B43A8
:104140005351000041542B4E534F43520000000086
:1041500041542B43474D520041542B434F50530081
:1041600041542B4E55455354415453004154000083
:1041700041545F4E534F53540000000041542B43B1
:104180004741545400000000A841000800000020EE
:10419000D4000000782C00087C420008D4000020E5
:1041A000740D0000882C00080000000010000000C2
:1041B00001000000000000000000000000000000FE
:1041C0006C410008C0400008EC400008184100089D
:1041D00050410008B4400008E04000082C410008AD
:1041E000F44000087C4100087C4100087C41000844
:1041F0003C41000858410008D440000860410008D4
:10420000C84000083441000820410008044100086B
:10421000FC4000080C4100084441000870410008BF
:104220000000000000000000000000001927000846
:1042300025270008492700088D0A0008BD1E000830
:104240005D1E0008802500009000002084000020F2
:10425000000000009C00002059240008000000001D
:1042600000000000000000000000000000A24A045E
:0C42700000000000000000000000000042
:04000005080000ED02
:00000001FF
